{"abi":[{"type":"constructor","inputs":[],"stateMutability":"nonpayable"},{"type":"function","name":"allowance","inputs":[{"name":"owner","type":"address","internalType":"address"},{"name":"spender","type":"address","internalType":"address"}],"outputs":[{"name":"","type":"uint256","internalType":"uint256"}],"stateMutability":"view"},{"type":"function","name":"approve","inputs":[{"name":"spender","type":"address","internalType":"address"},{"name":"value","type":"uint256","internalType":"uint256"}],"outputs":[{"name":"","type":"bool","internalType":"bool"}],"stateMutability":"nonpayable"},{"type":"function","name":"balanceOf","inputs":[{"name":"account","type":"address","internalType":"address"}],"outputs":[{"name":"","type":"uint256","internalType":"uint256"}],"stateMutability":"view"},{"type":"function","name":"decimals","inputs":[],"outputs":[{"name":"","type":"uint8","internalType":"uint8"}],"stateMutability":"view"},{"type":"function","name":"deposit","inputs":[],"outputs":[],"stateMutability":"payable"},{"type":"function","name":"mint","inputs":[{"name":"user","type":"address","internalType":"address"},{"name":"amount","type":"uint256","internalType":"uint256"}],"outputs":[],"stateMutability":"nonpayable"},{"type":"function","name":"name","inputs":[],"outputs":[{"name":"","type":"string","internalType":"string"}],"stateMutability":"view"},{"type":"function","name":"symbol","inputs":[],"outputs":[{"name":"","type":"string","internalType":"string"}],"stateMutability":"view"},{"type":"function","name":"totalSupply","inputs":[],"outputs":[{"name":"","type":"uint256","internalType":"uint256"}],"stateMutability":"view"},{"type":"function","name":"transfer","inputs":[{"name":"to","type":"address","internalType":"address"},{"name":"value","type":"uint256","internalType":"uint256"}],"outputs":[{"name":"","type":"bool","internalType":"bool"}],"stateMutability":"nonpayable"},{"type":"function","name":"transferFrom","inputs":[{"name":"from","type":"address","internalType":"address"},{"name":"to","type":"address","internalType":"address"},{"name":"value","type":"uint256","internalType":"uint256"}],"outputs":[{"name":"","type":"bool","internalType":"bool"}],"stateMutability":"nonpayable"},{"type":"function","name":"withdraw","inputs":[{"name":"amount","type":"uint256","internalType":"uint256"}],"outputs":[],"stateMutability":"nonpayable"},{"type":"event","name":"Approval","inputs":[{"name":"owner","type":"address","indexed":true,"internalType":"address"},{"name":"spender","type":"address","indexed":true,"internalType":"address"},{"name":"value","type":"uint256","indexed":false,"internalType":"uint256"}],"anonymous":false},{"type":"event","name":"Deposit","inputs":[{"name":"account","type":"address","indexed":true,"internalType":"address"},{"name":"amount","type":"uint256","indexed":false,"internalType":"uint256"}],"anonymous":false},{"type":"event","name":"Transfer","inputs":[{"name":"from","type":"address","indexed":true,"internalType":"address"},{"name":"to","type":"address","indexed":true,"internalType":"address"},{"name":"value","type":"uint256","indexed":false,"internalType":"uint256"}],"anonymous":false},{"type":"event","name":"Withdrawal","inputs":[{"name":"account","type":"address","indexed":true,"internalType":"address"},{"name":"amount","type":"uint256","indexed":false,"internalType":"uint256"}],"anonymous":false},{"type":"error","name":"ERC20InsufficientAllowance","inputs":[{"name":"spender","type":"address","internalType":"address"},{"name":"allowance","type":"uint256","internalType":"uint256"},{"name":"needed","type":"uint256","internalType":"uint256"}]},{"type":"error","name":"ERC20InsufficientBalance","inputs":[{"name":"sender","type":"address","internalType":"address"},{"name":"balance","type":"uint256","internalType":"uint256"},{"name":"needed","type":"uint256","internalType":"uint256"}]},{"type":"error","name":"ERC20InvalidApprover","inputs":[{"name":"approver","type":"address","internalType":"address"}]},{"type":"error","name":"ERC20InvalidReceiver","inputs":[{"name":"receiver","type":"address","internalType":"address"}]},{"type":"error","name":"ERC20InvalidSender","inputs":[{"name":"sender","type":"address","internalType":"address"}]},{"type":"error","name":"ERC20InvalidSpender","inputs":[{"name":"spender","type":"address","internalType":"address"}]}],"bytecode":{"object":"0x608060405234801561000f575f5ffd5b506040518060400160405280600d81526020016c2bb930b83832b21022ba3432b960991b815250604051806040016040528060048152602001630ae8aa8960e31b8152508160039081610062919061010f565b50600461006f828261010f565b5050506101c9565b634e487b7160e01b5f52604160045260245ffd5b600181811c9082168061009f57607f821691505b6020821081036100bd57634e487b7160e01b5f52602260045260245ffd5b50919050565b601f82111561010a57805f5260205f20601f840160051c810160208510156100e85750805b601f840160051c820191505b81811015610107575f81556001016100f4565b50505b505050565b81516001600160401b0381111561012857610128610077565b61013c81610136845461008b565b846100c3565b6020601f82116001811461016e575f83156101575750848201515b5f19600385901b1c1916600184901b178455610107565b5f84815260208120601f198516915b8281101561019d578785015182556020948501946001909201910161017d565b50848210156101ba57868401515f19600387901b60f8161c191681555b50505050600190811b01905550565b61098b806101d65f395ff3fe6080604052600436106100a5575f3560e01c806340c10f191161006257806340c10f191461017b57806370a082311461019a57806395d89b41146101ce578063a9059cbb146101e2578063d0e30db014610201578063dd62ed3e14610209575f5ffd5b806306fdde03146100a9578063095ea7b3146100d357806318160ddd1461010257806323b872dd146101205780632e1a7d4d1461013f578063313ce56714610160575b5f5ffd5b3480156100b4575f5ffd5b506100bd61024d565b6040516100ca91906107e4565b60405180910390f35b3480156100de575f5ffd5b506100f26100ed366004610834565b6102dd565b60405190151581526020016100ca565b34801561010d575f5ffd5b506002545b6040519081526020016100ca565b34801561012b575f5ffd5b506100f261013a36600461085c565b6102f6565b34801561014a575f5ffd5b5061015e610159366004610896565b610319565b005b34801561016b575f5ffd5b50604051601281526020016100ca565b348015610186575f5ffd5b5061015e610195366004610834565b6103e0565b3480156101a5575f5ffd5b506101126101b43660046108ad565b6001600160a01b03165f9081526020819052604090205490565b3480156101d9575f5ffd5b506100bd6103ee565b3480156101ed575f5ffd5b506100f26101fc366004610834565b6103fd565b61015e61040a565b348015610214575f5ffd5b506101126102233660046108cd565b6001600160a01b039182165f90815260016020908152604080832093909416825291909152205490565b60606003805461025c906108fe565b80601f0160208091040260200160405190810160405280929190818152602001828054610288906108fe565b80156102d35780601f106102aa576101008083540402835291602001916102d3565b820191905f5260205f20905b8154815290600101906020018083116102b657829003601f168201915b5050505050905090565b5f336102ea81858561049a565b60019150505b92915050565b5f336103038582856104ac565b61030e858585610527565b506001949350505050565b335f908152602081905260409020548111156103735760405162461bcd60e51b8152602060048201526014602482015273496e73756666696369656e742062616c616e636560601b60448201526064015b60405180910390fd5b61037d3382610584565b604051339082156108fc029083905f818181858888f193505050501580156103a7573d5f5f3e3d5ffd5b5060405181815233907f7fcf532c15f0a6db0bd6d0e038bea71d30d808c7d98cb3bf7268a95bf5081b659060200160405180910390a250565b6103ea82826105b8565b5050565b60606004805461025c906108fe565b5f336102ea818585610527565b5f34116104595760405162461bcd60e51b815260206004820152601860248201527f4d757374206465706f736974206d6f7265207468616e20300000000000000000604482015260640161036a565b61046333346105b8565b60405134815233907fe1fffcc4923d04b559f4d29a8bfc6cda04eb5b0d3c460751c2402c5c5cc9109c9060200160405180910390a2565b6104a783838360016105ec565b505050565b6001600160a01b038381165f908152600160209081526040808320938616835292905220545f198114610521578181101561051357604051637dc7a0d960e11b81526001600160a01b0384166004820152602481018290526044810183905260640161036a565b61052184848484035f6105ec565b50505050565b6001600160a01b03831661055057604051634b637e8f60e11b81525f600482015260240161036a565b6001600160a01b0382166105795760405163ec442f0560e01b81525f600482015260240161036a565b6104a78383836106be565b6001600160a01b0382166105ad57604051634b637e8f60e11b81525f600482015260240161036a565b6103ea825f836106be565b6001600160a01b0382166105e15760405163ec442f0560e01b81525f600482015260240161036a565b6103ea5f83836106be565b6001600160a01b0384166106155760405163e602df0560e01b81525f600482015260240161036a565b6001600160a01b03831661063e57604051634a1406b160e11b81525f600482015260240161036a565b6001600160a01b038085165f908152600160209081526040808320938716835292905220829055801561052157826001600160a01b0316846001600160a01b03167f8c5be1e5ebec7d5bd14f71427d1e84f3dd0314c0f7b2291e5b200ac8c7c3b925846040516106b091815260200190565b60405180910390a350505050565b6001600160a01b0383166106e8578060025f8282546106dd9190610936565b909155506107589050565b6001600160a01b0383165f908152602081905260409020548181101561073a5760405163391434e360e21b81526001600160a01b0385166004820152602481018290526044810183905260640161036a565b6001600160a01b0384165f9081526020819052604090209082900390555b6001600160a01b03821661077457600280548290039055610792565b6001600160a01b0382165f9081526020819052604090208054820190555b816001600160a01b0316836001600160a01b03167fddf252ad1be2c89b69c2b068fc378daa952ba7f163c4a11628f55a4df523b3ef836040516107d791815260200190565b60405180910390a3505050565b602081525f82518060208401528060208501604085015e5f604082850101526040601f19601f83011684010191505092915050565b80356001600160a01b038116811461082f575f5ffd5b919050565b5f5f60408385031215610845575f5ffd5b61084e83610819565b946020939093013593505050565b5f5f5f6060848603121561086e575f5ffd5b61087784610819565b925061088560208501610819565b929592945050506040919091013590565b5f602082840312156108a6575f5ffd5b5035919050565b5f602082840312156108bd575f5ffd5b6108c682610819565b9392505050565b5f5f604083850312156108de575f5ffd5b6108e783610819565b91506108f560208401610819565b90509250929050565b600181811c9082168061091257607f821691505b60208210810361093057634e487b7160e01b5f52602260045260245ffd5b50919050565b808201808211156102f057634e487b7160e01b5f52601160045260245ffdfea26469706673582212206cac68ea6b7fb8962e424ef76b9e772835cdab8898c9f0ac38ad65f6b150c99464736f6c634300081b0033","linkReferences":{}},"methodIdentifiers":{"allowance(address,address)":"dd62ed3e","approve(address,uint256)":"095ea7b3","balanceOf(address)":"70a08231","decimals()":"313ce567","deposit()":"d0e30db0","mint(address,uint256)":"40c10f19","name()":"06fdde03","symbol()":"95d89b41","totalSupply()":"18160ddd","transfer(address,uint256)":"a9059cbb","transferFrom(address,address,uint256)":"23b872dd","withdraw(uint256)":"2e1a7d4d"},"id":91}