{"abi":[{"type":"function","name":"run","inputs":[],"outputs":[],"stateMutability":"pure"}],"bytecode":{"object":"0x6080604052348015600e575f5ffd5b506101ec8061001c5f395ff3fe608060405234801561000f575f5ffd5b5060043610610029575f3560e01c8063c04062261461002d575b5f5ffd5b610035610037565b005b676f05b59d3b200000678ac7230489e800005f61005c8267016345785d8a0000610099565b90505f6100698284610178565b90505f61008761007986846100bd565b670de0b6b3a76400006100e2565b9050610092816100f9565b5050505050565b5f806100a5838561018b565b9050670de0b6b3a7640000815b049150505b92915050565b5f806100d1670de0b6b3a76400008561018b565b90508281816100b2576100b26101a2565b5f8183106100f057816100f2565b825b9392505050565b61013e8160405160240161010f91815260200190565b60408051601f198184030181529190526020810180516001600160e01b031663f82c50f160e01b179052610141565b50565b61013e815f6a636f6e736f6c652e6c6f6790505f5f835160208501845afa505050565b634e487b7160e01b5f52601160045260245ffd5b818103818111156100b7576100b7610164565b80820281158282048414176100b7576100b7610164565b634e487b7160e01b5f52601260045260245ffdfea264697066735822122032af28b0c7723d12a4834c9732a91b594270d8016e1b350342f1d43d22088ab564736f6c634300081b0033","linkReferences":{}},"methodIdentifiers":{"run()":"c0406226"},"id":60}