{"abi":[{"type":"constructor","inputs":[{"name":"treasury","type":"address","internalType":"address"},{"name":"reserveFeePercent","type":"uint256","internalType":"uint256"}],"stateMutability":"nonpayable"},{"type":"function","name":"MIN_TOTAL_CYCLES","inputs":[],"outputs":[{"name":"","type":"uint256","internalType":"uint256"}],"stateMutability":"view"},{"type":"function","name":"addSupportedSYTokens","inputs":[{"name":"syTokens","type":"address[]","internalType":"address[]"}],"outputs":[],"stateMutability":"nonpayable"},{"type":"function","name":"createSpiralPool","inputs":[{"name":"syToken","type":"address","internalType":"address"},{"name":"amountCycle","type":"uint256","internalType":"uint256"},{"name":"cycleDuration","type":"uint256","internalType":"uint256"},{"name":"cycleDepositAndBidDuration","type":"uint256","internalType":"uint256"},{"name":"totalCycles","type":"uint256","internalType":"uint256"},{"name":"startInterval","type":"uint256","internalType":"uint256"}],"outputs":[{"name":"pool","type":"address","internalType":"address"}],"stateMutability":"nonpayable"},{"type":"function","name":"getReserveFeePercent","inputs":[],"outputs":[{"name":"","type":"uint256","internalType":"uint256"}],"stateMutability":"view"},{"type":"function","name":"getSpiralPoolsForSYToken","inputs":[{"name":"syToken","type":"address","internalType":"address"}],"outputs":[{"name":"","type":"address[]","internalType":"address[]"}],"stateMutability":"view"},{"type":"function","name":"getSupportedSYTokens","inputs":[],"outputs":[{"name":"","type":"address[]","internalType":"address[]"}],"stateMutability":"view"},{"type":"function","name":"getUnderlyingTokens","inputs":[{"name":"syToken","type":"address","internalType":"address"}],"outputs":[{"name":"ybt","type":"address","internalType":"address"},{"name":"baseToken","type":"address","internalType":"address"}],"stateMutability":"view"},{"type":"function","name":"isSupportedSYToken","inputs":[{"name":"syToken","type":"address","internalType":"address"}],"outputs":[{"name":"","type":"bool","internalType":"bool"}],"stateMutability":"view"},{"type":"function","name":"owner","inputs":[],"outputs":[{"name":"","type":"address","internalType":"address"}],"stateMutability":"view"},{"type":"function","name":"renounceOwnership","inputs":[],"outputs":[],"stateMutability":"nonpayable"},{"type":"function","name":"transferOwnership","inputs":[{"name":"newOwner","type":"address","internalType":"address"}],"outputs":[],"stateMutability":"nonpayable"},{"type":"function","name":"updateLiquidityFeePercent","inputs":[{"name":"reserveFeePercent","type":"uint256","internalType":"uint256"}],"outputs":[],"stateMutability":"nonpayable"},{"type":"function","name":"updateTreasury","inputs":[{"name":"treasury","type":"address","internalType":"address"}],"outputs":[],"stateMutability":"nonpayable"},{"type":"event","name":"OwnershipTransferred","inputs":[{"name":"previousOwner","type":"address","indexed":true,"internalType":"address"},{"name":"newOwner","type":"address","indexed":true,"internalType":"address"}],"anonymous":false},{"type":"event","name":"PoolCreated","inputs":[{"name":"pool","type":"address","indexed":true,"internalType":"address"},{"name":"syToken","type":"address","indexed":true,"internalType":"address"}],"anonymous":false},{"type":"event","name":"SYTokenAdded","inputs":[{"name":"syToken","type":"address","indexed":true,"internalType":"address"},{"name":"ybt","type":"address","indexed":true,"internalType":"address"},{"name":"baseToken","type":"address","indexed":true,"internalType":"address"}],"anonymous":false},{"type":"error","name":"OwnableInvalidOwner","inputs":[{"name":"owner","type":"address","internalType":"address"}]},{"type":"error","name":"OwnableUnauthorizedAccount","inputs":[{"name":"account","type":"address","internalType":"address"}]},{"type":"error","name":"SpiralPoolFactory__AmountCycleCannotBeZero","inputs":[]},{"type":"error","name":"SpiralPoolFactory__CycleDurationCannotBeZero","inputs":[]},{"type":"error","name":"SpiralPoolFactory__InvalidCycleDepositAndBidDuration","inputs":[]},{"type":"error","name":"SpiralPoolFactory__InvalidLiquidityFeePercent","inputs":[]},{"type":"error","name":"SpiralPoolFactory__StartIntervalCannotBeZero","inputs":[]},{"type":"error","name":"SpiralPoolFactory__TotalCyclesTooLow","inputs":[{"name":"minTotalCycles","type":"uint256","internalType":"uint256"},{"name":"inputTotalCycles","type":"uint256","internalType":"uint256"}]},{"type":"error","name":"SpiralPoolFactory__TreasuryCannotBeZeroAddress","inputs":[]},{"type":"error","name":"SpiralPoolFactory__UnsupportedSYToken","inputs":[]},{"type":"error","name":"SpiralPool__SYTokenAlreadyAdded","inputs":[]}],"bytecode":{"object":"0x608060405234801561000f575f5ffd5b5060405161415938038061415983398101604081905261002e9161017b565b338061005457604051631e4fbdf760e01b81525f60048201526024015b60405180910390fd5b61005d81610077565b50610067826100c6565b61007081610117565b50506101b2565b5f80546001600160a01b038381166001600160a01b0319831681178455604051919092169283917f8be0079c531659141344cd1fd0a4f28419497f9722a3daafe3b4186f6b6457e09190a35050565b6100ce61014d565b6001600160a01b0381166100f5576040516390d91c8f60e01b815260040160405180910390fd5b600180546001600160a01b0319166001600160a01b0392909216919091179055565b61011f61014d565b67016345785d8a000081111561014857604051635631898760e01b815260040160405180910390fd5b600255565b5f546001600160a01b031633146101795760405163118cdaa760e01b815233600482015260240161004b565b565b5f5f6040838503121561018c575f5ffd5b82516001600160a01b03811681146101a2575f5ffd5b6020939093015192949293505050565b613f9a806101bf5f395ff3fe608060405234801561000f575f5ffd5b50600436106100cb575f3560e01c80639db0976411610088578063abae098e11610063578063abae098e1461020e578063f2fde38b14610221578063f704d19b14610234578063fe4d911d1461023c575f5ffd5b80639db09764146101d6578063a60df5e8146101e9578063a83f2cd9146101fb575f5ffd5b80634da16d2f146100cf578063561dba4f146100ed578063656dc2e41461012a578063715018a6146101955780637f51bb1f1461019f5780638da5cb5b146101b2575b5f5ffd5b6100d761024f565b6040516100e491906108e7565b60405180910390f35b61011a6100fb366004610946565b6001600160a01b039081165f9081526004602052604090205416151590565b60405190151581526020016100e4565b610175610138366004610946565b6001600160a01b039081165f9081526004602090815260409182902082518084019093528054841680845260019091015490931691018190529091565b604080516001600160a01b039384168152929091166020830152016100e4565b61019d6102af565b005b61019d6101ad366004610946565b6102c2565b5f546001600160a01b03165b6040516001600160a01b0390911681526020016100e4565b6101be6101e4366004610968565b610313565b6002545b6040519081526020016100e4565b61019d6102093660046109b0565b610481565b6100d761021c366004610946565b6104b7565b61019d61022f366004610946565b61052a565b6101ed600281565b61019d61024a3660046109c7565b61056c565b606060038054806020026020016040519081016040528092919081815260200182805480156102a557602002820191905f5260205f20905b81546001600160a01b03168152600190910190602001808311610287575b5050505050905090565b6102b7610766565b6102c05f610792565b565b6102ca610766565b6001600160a01b0381166102f1576040516390d91c8f60e01b815260040160405180910390fd5b600180546001600160a01b0319166001600160a01b0392909216919091179055565b5f6103228787878787876107e1565b6001600160a01b038088165f908152600460209081526040808320815180830190925280548516825260010154909316908301526103608442610a38565b90505f60015f9054906101000a90046001600160a01b03166002548b855f015186602001518d8d8d8d8a604051610396906108da565b6001600160a01b039a8b16815260208101999099529689166040890152948816606088015296909216608086015260a085015260c084015260e083019390935261010082019290925261012081019190915261014001604051809103905ff080158015610405573d5f5f3e3d5ffd5b506001600160a01b038b81165f818152600560209081526040808320805460018101825590845291832090910180546001600160a01b03191694861694851790555193945084939192917f4f2ce4e40f623ca765fc0167a25cb7842ceaafb8d82d3dec26ca0d0e0d2d48969190a39a9950505050505050505050565b610489610766565b67016345785d8a00008111156104b257604051635631898760e01b815260040160405180910390fd5b600255565b6001600160a01b0381165f9081526005602090815260409182902080548351818402810184019094528084526060939283018282801561051e57602002820191905f5260205f20905b81546001600160a01b03168152600190910190602001808311610500575b50505050509050919050565b610532610766565b6001600160a01b03811661056057604051631e4fbdf760e01b81525f60048201526024015b60405180910390fd5b61056981610792565b50565b610574610766565b805f5b81811015610760575f84848381811061059257610592610a5d565b90506020020160208101906105a79190610946565b6001600160a01b038082165f90815260046020526040902080549293509116156105e45760405163189e029d60e11b815260040160405180910390fd5b600380546001810182555f9182527fc2575a0e9e593c00f959f8c92f12db2869c3395a3b0502d05e2516446f71f85b0180546001600160a01b0319166001600160a01b038516908117909155604080516376d5de8560e01b815290516376d5de85916004808201926020929091908290030181865afa158015610669573d5f5f3e3d5ffd5b505050506040513d601f19601f8201168201806040525081019061068d9190610a71565b90505f836001600160a01b031663a40bee506040518163ffffffff1660e01b8152600401606060405180830381865afa1580156106cc573d5f5f3e3d5ffd5b505050506040513d601f19601f820116820180604052508101906106f09190610a8c565b5084546001600160a01b038086166001600160a01b0319928316811788556001880180548386169416841790556040519395509193509091908716907fa82a59bd6f09c3ab462d273bea55990f7f1b223d68229b977f59ecadff50ec18905f90a450505050806001019050610577565b50505050565b5f546001600160a01b031633146102c05760405163118cdaa760e01b8152336004820152602401610557565b5f80546001600160a01b038381166001600160a01b0319831681178455604051919092169283917f8be0079c531659141344cd1fd0a4f28419497f9722a3daafe3b4186f6b6457e09190a35050565b6001600160a01b038681165f908152600460205260409020541661081857604051634874b30960e01b815260040160405180910390fd5b5f85116108385760405163479c4b9360e01b815260040160405180910390fd5b5f8411610858576040516368d3049f60e01b815260040160405180910390fd5b5f8311801561086657508383105b610883576040516382af88cd60e01b815260040160405180910390fd5b600282818110156108b057604051635680551360e01b815260048101929092526024820152604401610557565b50505f81116108d2576040516301e59c4960e01b815260040160405180910390fd5b505050505050565b61348680610adf83390190565b602080825282518282018190525f918401906040840190835b818110156109275783516001600160a01b0316835260209384019390920191600101610900565b509095945050505050565b6001600160a01b0381168114610569575f5ffd5b5f60208284031215610956575f5ffd5b813561096181610932565b9392505050565b5f5f5f5f5f5f60c0878903121561097d575f5ffd5b863561098881610932565b9860208801359850604088013597606081013597506080810135965060a00135945092505050565b5f602082840312156109c0575f5ffd5b5035919050565b5f5f602083850312156109d8575f5ffd5b823567ffffffffffffffff8111156109ee575f5ffd5b8301601f810185136109fe575f5ffd5b803567ffffffffffffffff811115610a14575f5ffd5b8560208260051b8401011115610a28575f5ffd5b6020919091019590945092505050565b80820180821115610a5757634e487b7160e01b5f52601160045260245ffd5b92915050565b634e487b7160e01b5f52603260045260245ffd5b5f60208284031215610a81575f5ffd5b815161096181610932565b5f5f5f60608486031215610a9e575f5ffd5b835160028110610aac575f5ffd5b6020850151909350610abd81610932565b604085015190925060ff81168114610ad3575f5ffd5b80915050925092509256fe610200604052348015610010575f5ffd5b5060405161348638038061348683398101604081905261002f9161011b565b6040518060400160405280601581526020017f53706972616c205374616b6520506f736974696f6e00000000000000000000008152506040518060400160405280600381526020016205353560ec1b815250838282815f90816100929190610257565b50600161009f8282610257565b50505060805250506001600160a01b03808b166101e0526101c08a905286811660e05288811660a052871660c0526101008590526100dd8286610311565b610120526101409390935261018052610160526101a0525061033a945050505050565b80516001600160a01b0381168114610116575f5ffd5b919050565b5f5f5f5f5f5f5f5f5f5f6101408b8d031215610135575f5ffd5b61013e8b610100565b60208c0151909a50985061015460408c01610100565b975061016260608c01610100565b965061017060808c01610100565b95505f60a08c01519050809550505f60c08c01519050809450505f60e08c01519050809350505f6101008c01519050809250505f6101208c01519050809150509295989b9194979a5092959850565b634e487b7160e01b5f52604160045260245ffd5b600181811c908216806101e757607f821691505b60208210810361020557634e487b7160e01b5f52602260045260245ffd5b50919050565b601f82111561025257805f5260205f20601f840160051c810160208510156102305750805b601f840160051c820191505b8181101561024f575f815560010161023c565b50505b505050565b81516001600160401b03811115610270576102706101bf565b6102848161027e84546101d3565b8461020b565b6020601f8211600181146102b6575f831561029f5750848201515b5f19600385901b1c1916600184901b17845561024f565b5f84815260208120601f198516915b828110156102e557878501518255602094850194600190920191016102c5565b508482101561030257868401515f19600387901b60f8161c191681555b50505050600190811b01905550565b808202811582820484141761033457634e487b7160e01b5f52601160045260245ffd5b92915050565b60805160a05160c05160e05161010051610120516101405161016051610180516101a0516101c0516101e051612fc66104c05f395f611fbf01525f8181611f4101528181612525015261255401525f818161053d0152818161088701528181610fdc01526110ba01525f81816104a0015281816108e401528181610f1a0152818161111a015261114201525f8181610315015261100801525f818161050f01528181610fa201526110e601525f818161057601528181610b2901528181610d1201528181611441015281816115d70152611f1b01525f818161041301528181610e6301528181610f4f01528181611c33015281816124a501526124f801525f81816105e501528181610e41015261198701525f8181610b72015281816116d901526118db01525f8181610b5101528181610c3f0152818161170e0152818161191001526119b101525f8181610454015281816108b401528181610ae301528181611ae501528181611ebd01528181611ff00152818161248001526127590152612fc65ff3fe608060405234801561000f575f5ffd5b5060043610610234575f3560e01c8063868fb5b311610135578063c828371e116100b4578063ec33d2a011610079578063ec33d2a0146105c0578063f72a3b02146105c8578063f88afc76146105d0578063ff03a3ad146105e3578063ffcd599c14610609575f5ffd5b8063c828371e1461053b578063c87b56dd14610561578063d5eeaedf14610574578063e985e9c51461059a578063eb02c301146105ad575f5ffd5b8063a22cb465116100fa578063a22cb465146104d4578063b2a2eef3146104e7578063b88d4fde146104fa578063bd5da9ac1461050d578063be26ed7f14610533575f5ffd5b8063868fb5b314610478578063891f08741461048b5780638c0a80c21461049e57806395d89b41146104c45780639bd8ad71146104cc575f5ffd5b80632a0fa321116101c15780636352211e116101865780636352211e146103fe5780636aa8f0981461041157806370a08231146104375780637264dc7c1461044a57806376dc71be14610452575f5ffd5b80632a0fa321146103395780632b549f7e146103905780632c551f73146103a357806342842e0e146103cb57806343b9899f146103de575f5ffd5b8063095ea7b311610207578063095ea7b3146102c157806318f56a0a146102d6578063217ac237146102eb57806323b872dd1461030057806327c5582c14610313575f5ffd5b806301ffc9a714610238578063065c3f181461026057806306fdde0314610281578063081812fc14610296575b5f5ffd5b61024b610246366004612a10565b61061c565b60405190151581526020015b60405180910390f35b61027361026e366004612a2b565b61066d565b604051908152602001610257565b6102896106b4565b6040516102579190612a70565b6102a96102a4366004612a2b565b610743565b6040516001600160a01b039091168152602001610257565b6102d46102cf366004612a9d565b61076a565b005b6102de610779565b6040516102579190612b3e565b6102f3610884565b6040516102579190612bd1565b6102d461030e366004612be4565b610917565b7f0000000000000000000000000000000000000000000000000000000000000000610273565b610383610347366004612a2b565b604080518082019091525f8082526020820152505f90815260086020908152604091829020825180840190935280548352600101549082015290565b6040516102579190612c1e565b61038361039e366004612a2b565b6109a5565b6103b66103b1366004612a2b565b6109ff565b60408051928352602083019190915201610257565b6102d46103d9366004612be4565b610a82565b6103f16103ec366004612c35565b610aa1565b6040516102579190612c4e565b6102a961040c366004612a2b565b610cbd565b7f0000000000000000000000000000000000000000000000000000000000000000610273565b610273610445366004612c35565b610cc7565b610273610d0c565b7f0000000000000000000000000000000000000000000000000000000000000000610273565b610273610486366004612a2b565b610d3b565b610273610499366004612a2b565b610edf565b7f0000000000000000000000000000000000000000000000000000000000000000610273565b610289610f84565b600754610273565b6102d46104e2366004612c6d565b610f93565b6102f36104f5366004612a2b565b610f9e565b6102d4610508366004612cb6565b611077565b7f0000000000000000000000000000000000000000000000000000000000000000610273565b61027361108e565b7f0000000000000000000000000000000000000000000000000000000000000000610273565b61028961056f366004612a2b565b611168565b7f0000000000000000000000000000000000000000000000000000000000000000610273565b61024b6105a8366004612d93565b6111d9565b6103f16105bb366004612a2b565b611206565b6102d46112e8565b600654610273565b6102d46105de366004612dc4565b6114b7565b7f00000000000000000000000000000000000000000000000000000000000000006102a9565b610273610617366004612a2b565b61162d565b5f6001600160e01b031982166380ac58cd60e01b148061064c57506001600160e01b03198216635b5e139f60e01b145b8061066757506301ffc9a760e01b6001600160e01b03198316145b92915050565b5f5f6006838154811061068257610682612de4565b905f5260205f209060050201905061069983610edf565b91506106ae816106a885610cbd565b8461169c565b50919050565b60605f80546106c290612df8565b80601f01602080910402602001604051908101604052809291908181526020018280546106ee90612df8565b80156107395780601f1061071057610100808354040283529160200191610739565b820191905f5260205f20905b81548152906001019060200180831161071c57829003601f168201915b5050505050905090565b5f61074d82611778565b505f828152600460205260409020546001600160a01b0316610667565b6107758282336117b0565b5050565b60606006805480602002602001604051908101604052809291908181526020015f905b8282101561087b578382905f5260205f2090600502016040518060800160405290815f82015481526020016001820180548060200260200160405190810160405280929190818152602001828054801561083257602002820191905f5260205f20905f905b825461010083900a900460ff1615158152602060019283018181049485019490930390920291018084116108015790505b5050505050815260200160028201548152602001600382016040518060400160405290815f8201548152602001600182015481525050815250508152602001906001019061079c565b50505050905090565b5f7f00000000000000000000000000000000000000000000000000000000000000004210156108b257505f90565b7f000000000000000000000000000000000000000000000000000000000000000060065410156108e25750600390565b7f0000000000000000000000000000000000000000000000000000000000000000600754036109115750600290565b50600190565b6001600160a01b03821661094557604051633250574960e11b81525f60048201526024015b60405180910390fd5b5f6109518383336117bd565b9050836001600160a01b0316816001600160a01b03161461099f576040516364283d7b60e01b81526001600160a01b038086166004830152602482018490528216604482015260640161093c565b50505050565b604080518082019091525f8082526020820152600682815481106109cb576109cb612de4565b905f5260205f2090600502016003016040518060400160405290815f82015481526020016001820154815250509050919050565b5f5f5f610a0b846109a5565b8051909150158015610a1f57506020810151155b15610a2f57505f93849350915050565b5f60068581548110610a4357610a43612de4565b5f91825260208220600360059092020190810182905560048101919091559050610a7b610a6f86610cbd565b835160208501516118af565b5050915091565b610a9c83838360405180602001604052805f815250611077565b505050565b610aa9612912565b5f610ab2610884565b6003811115610ac357610ac3612ba1565b14610ae15760405163d5a8809160e01b815260040160405180910390fd5b7f000000000000000000000000000000000000000000000000000000000000000060065410610b2357604051634a9ce38960e11b815260040160405180910390fd5b5f610b4d7f00000000000000000000000000000000000000000000000000000000000000006119ad565b90507f00000000000000000000000000000000000000000000000000000000000000007f0000000000000000000000000000000000000000000000000000000000000000610b9c813385611a3b565b60405163095ea7b360e01b81526001600160a01b0383811660048301526024820185905282169063095ea7b3906044016020604051808303815f875af1158015610be8573d5f5f3e3d5ffd5b505050506040513d601f19601f82011682018060405250810190610c0c9190612e2a565b506040516320e8c56560e01b81523060048201526001600160a01b038281166024830152604482018590525f60648301527f000000000000000000000000000000000000000000000000000000000000000016906320e8c565906084016020604051808303815f875af1158015610c85573d5f5f3e3d5ffd5b505050506040513d601f19601f82011682018060405250810190610ca99190612e45565b50610cb48584611aa2565b95945050505050565b5f61066782611778565b5f6001600160a01b038216610cf1576040516322718ad960e21b81525f600482015260240161093c565b506001600160a01b03165f9081526003602052604090205490565b5f610d367f00000000000000000000000000000000000000000000000000000000000000006119ad565b905090565b5f6001610d46610884565b6003811115610d5757610d57612ba1565b14610d7557604051630fe101db60e31b815260040160405180910390fd5b5f610d7e61108e565b90505f60068481548110610d9457610d94612de4565b5f918252602090912060059091020190506001610db083610f9e565b6003811115610dc157610dc1612ba1565b148290610de457604051632fb602db60e01b815260040161093c91815260200190565b50806001018281548110610dfa57610dfa612de4565b905f5260205f2090602091828204019190069054906101000a900460ff16158290610e3b576040516302a9245160e41b815260040161093c91815260200190565b50610e877f0000000000000000000000000000000000000000000000000000000000000000337f0000000000000000000000000000000000000000000000000000000000000000611a3b565b6001816001018381548110610e9e57610e9e612de4565b905f5260205f2090602091828204019190066101000a81548160ff021916908315150217905550610ed781610ed286610cbd565b611c2d565b949350505050565b5f5f60068381548110610ef457610ef4612de4565b905f5260205f2090600502015f01549050805f03610f1457505f92915050565b5f6007547f0000000000000000000000000000000000000000000000000000000000000000610f439190612e70565b90505f610f78610f73837f0000000000000000000000000000000000000000000000000000000000000000612e83565b6119ad565b9050610cb48184612e70565b6060600180546106c290612df8565b610775338383611c64565b5f807f0000000000000000000000000000000000000000000000000000000000000000610fcc600185612e70565b610fd69190612e83565b611000907f0000000000000000000000000000000000000000000000000000000000000000612e9a565b90505f61102d7f000000000000000000000000000000000000000000000000000000000000000083612e9a565b90505f429050846007541061104757506003949350505050565b8281101561105957505f949350505050565b8181101561106c57506001949350505050565b506002949350505050565b611082848484610917565b61099f84848484611d02565b5f6001611099610884565b60038111156110aa576110aa612ba1565b146110b457505f90565b5f6110df7f000000000000000000000000000000000000000000000000000000000000000042612e70565b905061110b7f000000000000000000000000000000000000000000000000000000000000000082612ec1565b611116906001612e9a565b91507f0000000000000000000000000000000000000000000000000000000000000000821115611164577f000000000000000000000000000000000000000000000000000000000000000091505b5090565b606061117382611778565b505f61118960408051602081019091525f815290565b90505f8151116111a75760405180602001604052805f8152506111d2565b806111b184611e28565b6040516020016111c2929190612ef7565b6040516020818303038152906040525b9392505050565b6001600160a01b039182165f90815260056020908152604080832093909416825291909152205460ff1690565b61120e612912565b6006828154811061122157611221612de4565b905f5260205f2090600502016040518060800160405290815f8201548152602001600182018054806020026020016040519081016040528092919081815260200182805480156112ad57602002820191905f5260205f20905f905b825461010083900a900460ff16151581526020600192830181810494850194909303909202910180841161127c5790505b505050918352505060028201546020808301919091526040805180820182526003850154815260049094015491840191909152015292915050565b5f6112f1610884565b9050600181600381111561130757611307612ba1565b14806113245750600281600381111561132257611322612ba1565b145b6113415760405163778d2c3760e11b815260040160405180910390fd5b5f61134a61108e565b6007549091505f61135b8284612e70565b9050600161136884610f9e565b600381111561137957611379612ba1565b0361138c578061138881612f0b565b9150505b5f81116113ac576040516339b309dd60e11b815260040160405180910390fd5b5f6113b78284612e9a565b90506113d460405180604001604052805f81526020015f81525090565b5f80806113e2876001612e9a565b90505b8481116114ac576040805180820182525f80825260209182018190528381526008825282902082518084019093528054835260010154908201819052909450915081156114355783519250611463565b61143d611eb8565b92507f000000000000000000000000000000000000000000000000000000000000000091505b61146e838383611f19565b806006848154811061148257611482612de4565b5f9182526020909120600260059092020101556007819055806114a481612f20565b9150506113e5565b505050505050505050565b60016114c1610884565b60038111156114d2576114d2612ba1565b146114f057604051630fe101db60e31b815260040160405180910390fd5b5f6114f961108e565b9050600161150682610f9e565b600381111561151757611517612ba1565b14819061153a57604051632fb602db60e01b815260040161093c91815260200190565b506006838154811061154e5761154e612de4565b905f5260205f209060050201600201545f1461157d57604051636bafb4c960e01b815260040160405180910390fd5b61158683610cbd565b6001600160a01b0316336001600160a01b0316146115b757604051634eddae0760e01b815260040160405180910390fd5b5f81815260086020526040812060018101549091819003611600576115fd7f00000000000000000000000000000000000000000000000000000000000000006001612e9a565b90505b80841061162057604051631b9903dd60e01b815260040160405180910390fd5b5092835550600190910155565b5f6003611638610884565b600381111561164957611649612ba1565b1461166757604051636d83b9a360e11b815260040160405180910390fd5b5f6006838154811061167b5761167b612de4565b905f5260205f2090600502019050805f015491506106ae816106a885610cbd565b80835f015f8282546116ae9190612e70565b909155505060405163769f8e5d60e01b81526001600160a01b038381166004830152602482018390527f0000000000000000000000000000000000000000000000000000000000000000811660448301525f6064830181905260848301527f0000000000000000000000000000000000000000000000000000000000000000169063769f8e5d9060a4016020604051808303815f875af1158015611754573d5f5f3e3d5ffd5b505050506040513d601f19601f8201168201806040525081019061099f9190612e45565b5f818152600260205260408120546001600160a01b03168061066757604051637e27328960e01b81526004810184905260240161093c565b610a9c8383836001612025565b5f828152600260205260408120546001600160a01b03908116908316156117e9576117e9818486612129565b6001600160a01b03811615611823576118045f855f5f612025565b6001600160a01b0381165f90815260036020526040902080545f190190555b6001600160a01b03851615611851576001600160a01b0385165f908152600360205260409020805460010190555b5f8481526002602052604080822080546001600160a01b0319166001600160a01b0389811691821790925591518793918516917fddf252ad1be2c89b69c2b068fc378daa952ba7f163c4a11628f55a4df523b3ef91a4949350505050565b801561197c5760405163769f8e5d60e01b81526001600160a01b038481166004830152602482018390527f0000000000000000000000000000000000000000000000000000000000000000811660448301525f6064830181905260848301527f0000000000000000000000000000000000000000000000000000000000000000169063769f8e5d9060a4016020604051808303815f875af1158015611956573d5f5f3e3d5ffd5b505050506040513d601f19601f8201168201806040525081019061197a9190612e45565b505b8115610a9c57610a9c7f0000000000000000000000000000000000000000000000000000000000000000848461218d565b5f5f7f00000000000000000000000000000000000000000000000000000000000000006001600160a01b0316633ba0b9a96040518163ffffffff1660e01b8152600401602060405180830381865afa158015611a0b573d5f5f3e3d5ffd5b505050506040513d601f19601f82011682018060405250810190611a2f9190612e45565b90506111d2838261224c565b6001600160a01b038316611a8757803414610a9c5760405162461bcd60e51b815260206004820152600c60248201526b0cae8d040dad2e6dac2e8c6d60a31b604482015260640161093c565b8015610a9c57610a9c6001600160a01b03841683308461227a565b611aaa612912565b60068054600181018083555f83815291929083908110611acc57611acc612de4565b5f91825260209091206005909102018481559050611b0b7f00000000000000000000000000000000000000000000000000000000000000006001612e9a565b67ffffffffffffffff811115611b2357611b23612ca2565b604051908082528060200260200182016040528015611b4c578160200160208202803683370190505b508051611b63916001840191602090910190612950565b50611b6e85836122e1565b806040518060800160405290815f820154815260200160018201805480602002602001604051908101604052809291908181526020018280548015611bef57602002820191905f5260205f20905f905b825461010083900a900460ff161515815260206001928301818104948501949093039092029101808411611bbe5790505b505050918352505060028201546020808301919091526040805180820182526003850154815260049094015491840191909152015295945050505050565b5f611c577f00000000000000000000000000000000000000000000000000000000000000006119ad565b905061066783838361169c565b6001600160a01b038216611c9657604051630b61174360e31b81526001600160a01b038316600482015260240161093c565b6001600160a01b038381165f81815260056020908152604080832094871680845294825291829020805460ff191686151590811790915591519182527f17307eab39ab6107e8899845ad3d59bd9653f200f220920489ca2b5937696c31910160405180910390a3505050565b6001600160a01b0383163b1561099f57604051630a85bd0160e11b81526001600160a01b0384169063150b7a0290611d44903390889087908790600401612f38565b6020604051808303815f875af1925050508015611d7e575060408051601f3d908101601f19168201909252611d7b91810190612f6a565b60015b611de5573d808015611dab576040519150601f19603f3d011682016040523d82523d5f602084013e611db0565b606091505b5080515f03611ddd57604051633250574960e11b81526001600160a01b038516600482015260240161093c565b805181602001fd5b6001600160e01b03198116630a85bd0160e11b14611e2157604051633250574960e11b81526001600160a01b038516600482015260240161093c565b5050505050565b60605f611e3483612342565b60010190505f8167ffffffffffffffff811115611e5357611e53612ca2565b6040519080825280601f01601f191660200182016040528015611e7d576020820181803683370190505b5090508181016020015b5f19016f181899199a1a9b1b9c1cb0b131b232b360811b600a86061a8153600a8504945084611e8757509392505050565b5f5f5b7f00000000000000000000000000000000000000000000000000000000000000008110156111645760068181548110611ef657611ef6612de4565b905f5260205f209060050201600201545f03611f1157919050565b600101611ebb565b7f00000000000000000000000000000000000000000000000000000000000000005f611f65827f0000000000000000000000000000000000000000000000000000000000000000612419565b90505f611f8d611f7f611f788486612e70565b879061224c565b670de0b6b3a7640000612436565b90505f611f9a858361244b565b90505f611fa688610cbd565b9050611fba81835f015184602001516118af565b611fed7f000000000000000000000000000000000000000000000000000000000000000083608001518460a001516118af565b5f7f000000000000000000000000000000000000000000000000000000000000000090506114ac898285606001518660400151612606565b808061203957506001600160a01b03821615155b156120fa575f61204884611778565b90506001600160a01b038316158015906120745750826001600160a01b0316816001600160a01b031614155b8015612087575061208581846111d9565b155b156120b05760405163a9fbf51f60e01b81526001600160a01b038416600482015260240161093c565b81156120f85783856001600160a01b0316826001600160a01b03167f8c5be1e5ebec7d5bd14f71427d1e84f3dd0314c0f7b2291e5b200ac8c7c3b92560405160405180910390a45b505b50505f90815260046020526040902080546001600160a01b0319166001600160a01b0392909216919091179055565b612134838383612661565b610a9c576001600160a01b03831661216257604051637e27328960e01b81526004810182905260240161093c565b60405163177e802f60e01b81526001600160a01b03831660048201526024810182905260440161093c565b805f0361219957505050565b6001600160a01b038316612238575f826001600160a01b0316826040515f6040518083038185875af1925050503d805f81146121f0576040519150601f19603f3d011682016040523d82523d5f602084013e6121f5565b606091505b505090508061099f5760405162461bcd60e51b815260206004820152600f60248201526e195d1a081cd95b990819985a5b1959608a1b604482015260640161093c565b610a9c6001600160a01b03841683836126c2565b5f80612260670de0b6b3a764000085612e83565b905082818161227157612271612ead565b04949350505050565b6040516001600160a01b03848116602483015283811660448301526064820183905261099f9186918216906323b872dd906084015b604051602081830303815290604052915060e01b6020820180516001600160e01b0383818316178352505050506126f3565b6001600160a01b03821661230a57604051633250574960e11b81525f600482015260240161093c565b5f61231683835f6117bd565b90506001600160a01b03811615610a9c576040516339e3563760e11b81525f600482015260240161093c565b5f8072184f03e93ff9f4daa797ed6e38ed64bf6a1f0160401b83106123805772184f03e93ff9f4daa797ed6e38ed64bf6a1f0160401b830492506040015b6d04ee2d6d415b85acef810000000083106123ac576d04ee2d6d415b85acef8100000000830492506020015b662386f26fc1000083106123ca57662386f26fc10000830492506010015b6305f5e10083106123e2576305f5e100830492506008015b61271083106123f657612710830492506004015b60648310612408576064830492506002015b600a83106106675760010192915050565b5f806124258385612e83565b9050670de0b6b3a764000081612271565b5f81831061244457816111d2565b5090919050565b61247e6040518060c001604052805f81526020015f81526020015f81526020015f81526020015f81526020015f81525090565b7f00000000000000000000000000000000000000000000000000000000000000005f6124c97f00000000000000000000000000000000000000000000000000000000000000006119ad565b90505f6124d68683612754565b90505f6124e38285612e70565b90505f6124f08484612e83565b90505f61251d7f000000000000000000000000000000000000000000000000000000000000000084612e83565b9050612549827f0000000000000000000000000000000000000000000000000000000000000000612419565b60a0880152612578817f0000000000000000000000000000000000000000000000000000000000000000612419565b60808801526125878289612419565b60208801526125968189612419565b8752670de0b6b3a76400008810156125fa575f6125b4600188612e70565b90505f6125c98a670de0b6b3a7640000612e70565b90505f6125d68383612ec1565b90506125e28582612419565b60608b01526125f18482612419565b60408b01525050505b50505050505092915050565b81158015612612575080155b61099f575f5b83811015611e2157808514612659575f6006828154811061263b5761263b612de4565b5f918252602090912060059091020160048101859055600301839055505b600101612618565b5f6001600160a01b03831615801590610ed75750826001600160a01b0316846001600160a01b0316148061269a575061269a84846111d9565b80610ed75750505f908152600460205260409020546001600160a01b03908116911614919050565b6040516001600160a01b03838116602483015260448201839052610a9c91859182169063a9059cbb906064016122af565b5f6127076001600160a01b0384168361280d565b905080515f1415801561272b5750808060200190518101906127299190612e2a565b155b15610a9c57604051635274afe760e01b81526001600160a01b038416600482015260240161093c565b5f805b7f0000000000000000000000000000000000000000000000000000000000000000811015612806575f6006828154811061279357612793612de4565b905f5260205f20906005020190508060010185815481106127b6576127b6612de4565b905f5260205f2090602091828204019190069054906101000a900460ff166127fd57826127e281612f20565b93505083815f015f8282546127f79190612e70565b90915550505b50600101612757565b5092915050565b60606111d283835f845f5f856001600160a01b031684866040516128319190612f85565b5f6040518083038185875af1925050503d805f811461286b576040519150601f19603f3d011682016040523d82523d5f602084013e612870565b606091505b509150915061288086838361288a565b9695505050505050565b60608261289f5761289a826128e6565b6111d2565b81511580156128b657506001600160a01b0384163b155b156128df57604051639996b31560e01b81526001600160a01b038516600482015260240161093c565b50806111d2565b8051156128f65780518082602001fd5b604051630a12f52160e11b815260040160405180910390fd5b50565b60405180608001604052805f8152602001606081526020015f815260200161294b60405180604001604052805f81526020015f81525090565b905290565b828054828255905f5260205f2090601f016020900481019282156129e0579160200282015f5b838211156129b257835183826101000a81548160ff02191690831515021790555092602001926001016020815f01049283019260010302612976565b80156129de5782816101000a81549060ff02191690556001016020815f010492830192600103026129b2565b505b506111649291505b80821115611164575f81556001016129e8565b6001600160e01b03198116811461290f575f5ffd5b5f60208284031215612a20575f5ffd5b81356111d2816129fb565b5f60208284031215612a3b575f5ffd5b5035919050565b5f81518084528060208401602086015e5f602082860101526020601f19601f83011685010191505092915050565b602081525f6111d26020830184612a42565b80356001600160a01b0381168114612a98575f5ffd5b919050565b5f5f60408385031215612aae575f5ffd5b612ab783612a82565b946020939093013593505050565b5f60a0830182518452602083015160a0602086015281815180845260c0870191506020830193505f92505b80831015612b1557835115158252602082019150602084019350600183019250612af0565b506040850151604087015260608501519250610cb4606087018480518252602090810151910152565b5f602082016020835280845180835260408501915060408160051b8601019250602086015f5b82811015612b9557603f19878603018452612b80858351612ac5565b94506020938401939190910190600101612b64565b50929695505050505050565b634e487b7160e01b5f52602160045260245ffd5b6004811061290f57634e487b7160e01b5f52602160045260245ffd5b60208101612bde83612bb5565b91905290565b5f5f5f60608486031215612bf6575f5ffd5b612bff84612a82565b9250612c0d60208501612a82565b929592945050506040919091013590565b815181526020808301519082015260408101610667565b5f60208284031215612c45575f5ffd5b6111d282612a82565b602081525f6111d26020830184612ac5565b801515811461290f575f5ffd5b5f5f60408385031215612c7e575f5ffd5b612c8783612a82565b91506020830135612c9781612c60565b809150509250929050565b634e487b7160e01b5f52604160045260245ffd5b5f5f5f5f60808587031215612cc9575f5ffd5b612cd285612a82565b9350612ce060208601612a82565b925060408501359150606085013567ffffffffffffffff811115612d02575f5ffd5b8501601f81018713612d12575f5ffd5b803567ffffffffffffffff811115612d2c57612d2c612ca2565b604051601f8201601f19908116603f0116810167ffffffffffffffff81118282101715612d5b57612d5b612ca2565b604052818152828201602001891015612d72575f5ffd5b816020840160208301375f6020838301015280935050505092959194509250565b5f5f60408385031215612da4575f5ffd5b612dad83612a82565b9150612dbb60208401612a82565b90509250929050565b5f5f60408385031215612dd5575f5ffd5b50508035926020909101359150565b634e487b7160e01b5f52603260045260245ffd5b600181811c90821680612e0c57607f821691505b6020821081036106ae57634e487b7160e01b5f52602260045260245ffd5b5f60208284031215612e3a575f5ffd5b81516111d281612c60565b5f60208284031215612e55575f5ffd5b5051919050565b634e487b7160e01b5f52601160045260245ffd5b8181038181111561066757610667612e5c565b808202811582820484141761066757610667612e5c565b8082018082111561066757610667612e5c565b634e487b7160e01b5f52601260045260245ffd5b5f82612edb57634e487b7160e01b5f52601260045260245ffd5b500490565b5f81518060208401855e5f93019283525090919050565b5f610ed7612f058386612ee0565b84612ee0565b5f81612f1957612f19612e5c565b505f190190565b5f60018201612f3157612f31612e5c565b5060010190565b6001600160a01b03858116825284166020820152604081018390526080606082018190525f9061288090830184612a42565b5f60208284031215612f7a575f5ffd5b81516111d2816129fb565b5f6111d28284612ee056fea2646970667358221220f152250910763b91fa0bb5445166bdbd68d61c825619aaf073a2f98943e91b6964736f6c634300081b0033a264697066735822122016f2af07bede1473ef927819b78f9755749f81b6bd138aaaa9192a909e03b61564736f6c634300081b0033","linkReferences":{}},"methodIdentifiers":{"MIN_TOTAL_CYCLES()":"f704d19b","addSupportedSYTokens(address[])":"fe4d911d","createSpiralPool(address,uint256,uint256,uint256,uint256,uint256)":"9db09764","getReserveFeePercent()":"a60df5e8","getSpiralPoolsForSYToken(address)":"abae098e","getSupportedSYTokens()":"4da16d2f","getUnderlyingTokens(address)":"656dc2e4","isSupportedSYToken(address)":"561dba4f","owner()":"8da5cb5b","renounceOwnership()":"715018a6","transferOwnership(address)":"f2fde38b","updateLiquidityFeePercent(uint256)":"a83f2cd9","updateTreasury(address)":"7f51bb1f"},"id":60}