{"abi":[{"type":"constructor","inputs":[{"name":"treasury","type":"address","internalType":"address"},{"name":"reserveFeePercent","type":"uint256","internalType":"uint256"}],"stateMutability":"nonpayable"},{"type":"function","name":"MAX_RESERVE_FEE_PERCENT","inputs":[],"outputs":[{"name":"","type":"uint256","internalType":"uint256"}],"stateMutability":"view"},{"type":"function","name":"MIN_TOTAL_CYCLES","inputs":[],"outputs":[{"name":"","type":"uint256","internalType":"uint256"}],"stateMutability":"view"},{"type":"function","name":"addSupportedSYTokens","inputs":[{"name":"syTokens","type":"address[]","internalType":"address[]"}],"outputs":[],"stateMutability":"nonpayable"},{"type":"function","name":"createSpiralPool","inputs":[{"name":"syToken","type":"address","internalType":"address"},{"name":"amountCycle","type":"uint256","internalType":"uint256"},{"name":"cycleDuration","type":"uint256","internalType":"uint256"},{"name":"cycleDepositAndBidDuration","type":"uint256","internalType":"uint256"},{"name":"totalCycles","type":"uint256","internalType":"uint256"},{"name":"startInterval","type":"uint256","internalType":"uint256"}],"outputs":[{"name":"pool","type":"address","internalType":"address"}],"stateMutability":"nonpayable"},{"type":"function","name":"getReserveFeePercent","inputs":[],"outputs":[{"name":"","type":"uint256","internalType":"uint256"}],"stateMutability":"view"},{"type":"function","name":"getSpiralPoolsForSYToken","inputs":[{"name":"syToken","type":"address","internalType":"address"}],"outputs":[{"name":"","type":"address[]","internalType":"address[]"}],"stateMutability":"view"},{"type":"function","name":"getSupportedSYTokens","inputs":[],"outputs":[{"name":"","type":"address[]","internalType":"address[]"}],"stateMutability":"view"},{"type":"function","name":"getTreasury","inputs":[],"outputs":[{"name":"treasury","type":"address","internalType":"address"}],"stateMutability":"view"},{"type":"function","name":"getUnderlyingTokens","inputs":[{"name":"syToken","type":"address","internalType":"address"}],"outputs":[{"name":"ybt","type":"address","internalType":"address"},{"name":"baseToken","type":"address","internalType":"address"}],"stateMutability":"view"},{"type":"function","name":"isSupportedSYToken","inputs":[{"name":"syToken","type":"address","internalType":"address"}],"outputs":[{"name":"","type":"bool","internalType":"bool"}],"stateMutability":"view"},{"type":"function","name":"owner","inputs":[],"outputs":[{"name":"","type":"address","internalType":"address"}],"stateMutability":"view"},{"type":"function","name":"renounceOwnership","inputs":[],"outputs":[],"stateMutability":"nonpayable"},{"type":"function","name":"transferOwnership","inputs":[{"name":"newOwner","type":"address","internalType":"address"}],"outputs":[],"stateMutability":"nonpayable"},{"type":"function","name":"updateReserveFeePercent","inputs":[{"name":"reserveFeePercent","type":"uint256","internalType":"uint256"}],"outputs":[],"stateMutability":"nonpayable"},{"type":"function","name":"updateTreasury","inputs":[{"name":"treasury","type":"address","internalType":"address"}],"outputs":[],"stateMutability":"nonpayable"},{"type":"event","name":"OwnershipTransferred","inputs":[{"name":"previousOwner","type":"address","indexed":true,"internalType":"address"},{"name":"newOwner","type":"address","indexed":true,"internalType":"address"}],"anonymous":false},{"type":"event","name":"PoolCreated","inputs":[{"name":"pool","type":"address","indexed":true,"internalType":"address"},{"name":"syToken","type":"address","indexed":true,"internalType":"address"}],"anonymous":false},{"type":"error","name":"OwnableInvalidOwner","inputs":[{"name":"owner","type":"address","internalType":"address"}]},{"type":"error","name":"OwnableUnauthorizedAccount","inputs":[{"name":"account","type":"address","internalType":"address"}]},{"type":"error","name":"SpiralPoolFactory__AmountCycleCannotBeZero","inputs":[]},{"type":"error","name":"SpiralPoolFactory__CycleDurationCannotBeZero","inputs":[]},{"type":"error","name":"SpiralPoolFactory__InvalidCycleDepositAndBidDuration","inputs":[]},{"type":"error","name":"SpiralPoolFactory__InvalidReserveFeePercent","inputs":[]},{"type":"error","name":"SpiralPoolFactory__StartIntervalCannotBeZero","inputs":[]},{"type":"error","name":"SpiralPoolFactory__TotalCyclesTooLow","inputs":[{"name":"minTotalCycles","type":"uint256","internalType":"uint256"},{"name":"inputTotalCycles","type":"uint256","internalType":"uint256"}]},{"type":"error","name":"SpiralPoolFactory__TreasuryCannotBeZeroAddress","inputs":[]},{"type":"error","name":"SpiralPoolFactory__UnsupportedSYToken","inputs":[]},{"type":"error","name":"SpiralPool__SYTokenAlreadyAdded","inputs":[]}],"bytecode":{"object":"0x608060405234801561000f575f5ffd5b506040516141c83803806141c883398101604081905261002e9161017b565b338061005457604051631e4fbdf760e01b81525f60048201526024015b60405180910390fd5b61005d81610077565b50610067826100c6565b61007081610117565b50506101b2565b5f80546001600160a01b038381166001600160a01b0319831681178455604051919092169283917f8be0079c531659141344cd1fd0a4f28419497f9722a3daafe3b4186f6b6457e09190a35050565b6100ce61014d565b6001600160a01b0381166100f5576040516390d91c8f60e01b815260040160405180910390fd5b600180546001600160a01b0319166001600160a01b0392909216919091179055565b61011f61014d565b67016345785d8a00008111156101485760405163713205b360e01b815260040160405180910390fd5b600255565b5f546001600160a01b031633146101795760405163118cdaa760e01b815233600482015260240161004b565b565b5f5f6040838503121561018c575f5ffd5b82516001600160a01b03811681146101a2575f5ffd5b6020939093015192949293505050565b614009806101bf5f395ff3fe608060405234801561000f575f5ffd5b50600436106100f0575f3560e01c80638c7193b711610093578063abae098e11610063578063abae098e14610253578063f2fde38b14610266578063f704d19b14610279578063fe4d911d14610281575f5ffd5b80638c7193b7146102155780638da5cb5b146102285780639db0976414610238578063a60df5e81461024b575f5ffd5b806364752910116100ce5780636475291014610170578063656dc2e41461018d578063715018a6146101f85780637f51bb1f14610202575f5ffd5b80633b19e84a146100f45780634da16d2f1461011e578063561dba4f14610133575b5f5ffd5b6001546001600160a01b03165b6040516001600160a01b0390911681526020015b60405180910390f35b610126610294565b60405161011591906108f8565b610160610141366004610957565b6001600160a01b039081165f9081526004602052604090205416151590565b6040519015158152602001610115565b61017f67016345785d8a000081565b604051908152602001610115565b6101d861019b366004610957565b6001600160a01b039081165f9081526004602090815260409182902082518084019093528054841680845260019091015490931691018190529091565b604080516001600160a01b03938416815292909116602083015201610115565b6102006102f4565b005b610200610210366004610957565b610307565b610200610223366004610979565b610358565b5f546001600160a01b0316610101565b610101610246366004610990565b61038e565b60025461017f565b610126610261366004610957565b6104fc565b610200610274366004610957565b61056f565b61017f600281565b61020061028f3660046109d8565b6105b1565b606060038054806020026020016040519081016040528092919081815260200182805480156102ea57602002820191905f5260205f20905b81546001600160a01b031681526001909101906020018083116102cc575b5050505050905090565b6102fc610776565b6103055f6107a2565b565b61030f610776565b6001600160a01b038116610336576040516390d91c8f60e01b815260040160405180910390fd5b600180546001600160a01b0319166001600160a01b0392909216919091179055565b610360610776565b67016345785d8a00008111156103895760405163713205b360e01b815260040160405180910390fd5b600255565b5f61039d8787878787876107f1565b6001600160a01b038088165f908152600460209081526040808320815180830190925280548516825260010154909316908301526103db8442610a49565b90505f60015f9054906101000a90046001600160a01b03166002548b855f015186602001518d8d8d8d8a604051610411906108eb565b6001600160a01b039a8b16815260208101999099529689166040890152948816606088015296909216608086015260a085015260c084015260e083019390935261010082019290925261012081019190915261014001604051809103905ff080158015610480573d5f5f3e3d5ffd5b506001600160a01b038b81165f818152600560209081526040808320805460018101825590845291832090910180546001600160a01b03191694861694851790555193945084939192917f4f2ce4e40f623ca765fc0167a25cb7842ceaafb8d82d3dec26ca0d0e0d2d48969190a39a9950505050505050505050565b6001600160a01b0381165f9081526005602090815260409182902080548351818402810184019094528084526060939283018282801561056357602002820191905f5260205f20905b81546001600160a01b03168152600190910190602001808311610545575b50505050509050919050565b610577610776565b6001600160a01b0381166105a557604051631e4fbdf760e01b81525f60048201526024015b60405180910390fd5b6105ae816107a2565b50565b6105b9610776565b805f5b81811015610770575f8484838181106105d7576105d7610a6e565b90506020020160208101906105ec9190610957565b6001600160a01b038082165f90815260046020526040902080549293509116156106295760405163189e029d60e11b815260040160405180910390fd5b600380546001810182555f9182527fc2575a0e9e593c00f959f8c92f12db2869c3395a3b0502d05e2516446f71f85b0180546001600160a01b0319166001600160a01b038516908117909155604080516376d5de8560e01b815290516376d5de85916004808201926020929091908290030181865afa1580156106ae573d5f5f3e3d5ffd5b505050506040513d601f19601f820116820180604052508101906106d29190610a82565b90505f836001600160a01b031663a40bee506040518163ffffffff1660e01b8152600401606060405180830381865afa158015610711573d5f5f3e3d5ffd5b505050506040513d601f19601f820116820180604052508101906107359190610a9d565b5084546001600160a01b039485166001600160a01b0319918216178655600195860180549290951691161790925550509190910190506105bc565b50505050565b5f546001600160a01b031633146103055760405163118cdaa760e01b815233600482015260240161059c565b5f80546001600160a01b038381166001600160a01b0319831681178455604051919092169283917f8be0079c531659141344cd1fd0a4f28419497f9722a3daafe3b4186f6b6457e09190a35050565b6001600160a01b038681165f908152600460205260409020541661082857604051634874b30960e01b815260040160405180910390fd5b5f85116108485760405163479c4b9360e01b815260040160405180910390fd5b5f8411610868576040516368d3049f60e01b815260040160405180910390fd5b5f831180156108775750838311155b610894576040516382af88cd60e01b815260040160405180910390fd5b600282818110156108c157604051635680551360e01b81526004810192909252602482015260440161059c565b50505f81116108e3576040516301e59c4960e01b815260040160405180910390fd5b505050505050565b6134e480610af083390190565b602080825282518282018190525f918401906040840190835b818110156109385783516001600160a01b0316835260209384019390920191600101610911565b509095945050505050565b6001600160a01b03811681146105ae575f5ffd5b5f60208284031215610967575f5ffd5b813561097281610943565b9392505050565b5f60208284031215610989575f5ffd5b5035919050565b5f5f5f5f5f5f60c087890312156109a5575f5ffd5b86356109b081610943565b9860208801359850604088013597606081013597506080810135965060a00135945092505050565b5f5f602083850312156109e9575f5ffd5b823567ffffffffffffffff8111156109ff575f5ffd5b8301601f81018513610a0f575f5ffd5b803567ffffffffffffffff811115610a25575f5ffd5b8560208260051b8401011115610a39575f5ffd5b6020919091019590945092505050565b80820180821115610a6857634e487b7160e01b5f52601160045260245ffd5b92915050565b634e487b7160e01b5f52603260045260245ffd5b5f60208284031215610a92575f5ffd5b815161097281610943565b5f5f5f60608486031215610aaf575f5ffd5b835160028110610abd575f5ffd5b6020850151909350610ace81610943565b604085015190925060ff81168114610ae4575f5ffd5b80915050925092509256fe610200604052348015610010575f5ffd5b506040516134e43803806134e483398101604081905261002f9161011b565b6040518060400160405280601581526020017f53706972616c205374616b6520506f736974696f6e00000000000000000000008152506040518060400160405280600381526020016205353560ec1b815250838282815f90816100929190610257565b50600161009f8282610257565b50505060805250506001600160a01b03808b166101c0526101a08a90528781166101e05286811660c052881660a05260e08590526100dd8286610311565b61010052610120939093526101605261014052610180525061033a945050505050565b80516001600160a01b0381168114610116575f5ffd5b919050565b5f5f5f5f5f5f5f5f5f5f6101408b8d031215610135575f5ffd5b61013e8b610100565b60208c0151909a50985061015460408c01610100565b975061016260608c01610100565b965061017060808c01610100565b95505f60a08c01519050809550505f60c08c01519050809450505f60e08c01519050809350505f6101008c01519050809250505f6101208c01519050809150509295989b9194979a5092959850565b634e487b7160e01b5f52604160045260245ffd5b600181811c908216806101e757607f821691505b60208210810361020557634e487b7160e01b5f52602260045260245ffd5b50919050565b601f82111561025257805f5260205f20601f840160051c810160208510156102305750805b601f840160051c820191505b8181101561024f575f815560010161023c565b50505b505050565b81516001600160401b03811115610270576102706101bf565b6102848161027e84546101d3565b8461020b565b6020601f8211600181146102b6575f831561029f5750848201515b5f19600385901b1c1916600184901b17845561024f565b5f84815260208120601f198516915b828110156102e557878501518255602094850194600190920191016102c5565b508482101561030257868401515f19600387901b60f8161c191681555b50505050600190811b01905550565b808202811582820484141761033457634e487b7160e01b5f52601160045260245ffd5b92915050565b60805160a05160c05160e05161010051610120516101405161016051610180516101a0516101c0516101e05161302b6104b95f395f81816117a9015261192c01525f611f3801525f8181611eba0152818161258a01526125b901525f81816106ca01528181610a80015281816110ac015261118a01525f818161056f01528181610add01528181610ef7015281816111ea015261121201525f818161038001526110d801525f81816106840152818161107201526111b601525f818161071b01528181610cef0152818161100101528181611510015281816116a60152611e9401525f81816104a601528181610e4001528181610f2c01528181611a210152818161250a015261255d01525f81816107d201528181610e1e015261195701525f81816105b50152818161102c015281816117880152818161190b015261198401525f818161050b01528181610aad01528181610fbb01528181611a9501528181611e3601528181611f69015281816124e501526127be015261302b5ff3fe608060405260043610610233575f3560e01c80638c0a80c211610129578063c828371e116100a8578063ec33d2a01161006d578063ec33d2a01461077d578063f72a3b0214610791578063f88afc76146107a5578063ff03a3ad146107c4578063ffcd599c146107f6575f5ffd5b8063c828371e146106bc578063c87b56dd146106ee578063d5eeaedf1461070d578063e985e9c51461073f578063eb02c3011461075e575f5ffd5b8063a22cb465116100ee578063a22cb46514610619578063b2a2eef314610638578063b88d4fde14610657578063bd5da9ac14610676578063be26ed7f146106a8575f5ffd5b80638c0a80c21461056157806395d89b411461059357806396423663146105a757806397d475d7146105d95780639bd8ad7114610605575f5ffd5b80632b549f7e116101b557806370a082311161017a57806370a08231146104ca5780637264dc7c146104e957806376dc71be146104fd578063868fb5b31461052f578063891f087414610542575f5ffd5b80632b549f7e146104075780632c551f731461042657806342842e0e1461045a5780636352211e146104795780636aa8f09814610498575f5ffd5b806318f56a0a116101fb57806318f56a0a14610311578063217ac2371461033257806323b872dd1461035357806327c5582c146103725780632a0fa321146103a4575f5ffd5b806301ffc9a714610237578063065c3f181461026b57806306fdde0314610298578063081812fc146102b9578063095ea7b3146102f0575b5f5ffd5b348015610242575f5ffd5b50610256610251366004612a75565b610815565b60405190151581526020015b60405180910390f35b348015610276575f5ffd5b5061028a610285366004612a90565b610866565b604051908152602001610262565b3480156102a3575f5ffd5b506102ac6108ad565b6040516102629190612ad5565b3480156102c4575f5ffd5b506102d86102d3366004612a90565b61093c565b6040516001600160a01b039091168152602001610262565b3480156102fb575f5ffd5b5061030f61030a366004612b02565b610963565b005b34801561031c575f5ffd5b50610325610972565b6040516102629190612ba3565b34801561033d575f5ffd5b50610346610a7d565b6040516102629190612c36565b34801561035e575f5ffd5b5061030f61036d366004612c49565b610b10565b34801561037d575f5ffd5b507f000000000000000000000000000000000000000000000000000000000000000061028a565b3480156103af575f5ffd5b506103fa6103be366004612a90565b604080518082019091525f8082526020820152505f90815260086020908152604091829020825180840190935280548352600101549082015290565b6040516102629190612c83565b348015610412575f5ffd5b506103fa610421366004612a90565b610b9e565b348015610431575f5ffd5b50610445610440366004612a90565b610bf8565b60408051928352602083019190915201610262565b348015610465575f5ffd5b5061030f610474366004612c49565b610c7b565b348015610484575f5ffd5b506102d8610493366004612a90565b610c9a565b3480156104a3575f5ffd5b507f000000000000000000000000000000000000000000000000000000000000000061028a565b3480156104d5575f5ffd5b5061028a6104e4366004612c9a565b610ca4565b3480156104f4575f5ffd5b5061028a610ce9565b348015610508575f5ffd5b507f000000000000000000000000000000000000000000000000000000000000000061028a565b61028a61053d366004612a90565b610d18565b34801561054d575f5ffd5b5061028a61055c366004612a90565b610ebc565b34801561056c575f5ffd5b507f000000000000000000000000000000000000000000000000000000000000000061028a565b34801561059e575f5ffd5b506102ac610f6a565b3480156105b2575f5ffd5b507f00000000000000000000000000000000000000000000000000000000000000006102d8565b3480156105e4575f5ffd5b506105f86105f3366004612c9a565b610f79565b6040516102629190612cb3565b348015610610575f5ffd5b5060075461028a565b348015610624575f5ffd5b5061030f610633366004612cd2565b611063565b348015610643575f5ffd5b50610346610652366004612a90565b61106e565b348015610662575f5ffd5b5061030f610671366004612d1b565b611147565b348015610681575f5ffd5b507f000000000000000000000000000000000000000000000000000000000000000061028a565b3480156106b3575f5ffd5b5061028a61115e565b3480156106c7575f5ffd5b507f000000000000000000000000000000000000000000000000000000000000000061028a565b3480156106f9575f5ffd5b506102ac610708366004612a90565b611238565b348015610718575f5ffd5b507f000000000000000000000000000000000000000000000000000000000000000061028a565b34801561074a575f5ffd5b50610256610759366004612df8565b6112a8565b348015610769575f5ffd5b506105f8610778366004612a90565b6112d5565b348015610788575f5ffd5b5061030f6113b7565b34801561079c575f5ffd5b5060065461028a565b3480156107b0575f5ffd5b5061030f6107bf366004612e29565b611586565b3480156107cf575f5ffd5b507f00000000000000000000000000000000000000000000000000000000000000006102d8565b348015610801575f5ffd5b5061028a610810366004612a90565b6116fc565b5f6001600160e01b031982166380ac58cd60e01b148061084557506001600160e01b03198216635b5e139f60e01b145b8061086057506301ffc9a760e01b6001600160e01b03198316145b92915050565b5f5f6006838154811061087b5761087b612e49565b905f5260205f209060050201905061089283610ebc565b91506108a7816108a185610c9a565b8461176b565b50919050565b60605f80546108bb90612e5d565b80601f01602080910402602001604051908101604052809291908181526020018280546108e790612e5d565b80156109325780601f1061090957610100808354040283529160200191610932565b820191905f5260205f20905b81548152906001019060200180831161091557829003601f168201915b5050505050905090565b5f610946826117cf565b505f828152600460205260409020546001600160a01b0316610860565b61096e828233611807565b5050565b60606006805480602002602001604051908101604052809291908181526020015f905b82821015610a74578382905f5260205f2090600502016040518060800160405290815f820154815260200160018201805480602002602001604051908101604052809291908181526020018280548015610a2b57602002820191905f5260205f20905f905b825461010083900a900460ff1615158152602060019283018181049485019490930390920291018084116109fa5790505b5050505050815260200160028201548152602001600382016040518060400160405290815f82015481526020016001820154815250508152505081526020019060010190610995565b50505050905090565b5f7f0000000000000000000000000000000000000000000000000000000000000000421015610aab57505f90565b7f00000000000000000000000000000000000000000000000000000000000000006006541015610adb5750600390565b7f000000000000000000000000000000000000000000000000000000000000000060075403610b0a5750600290565b50600190565b6001600160a01b038216610b3e57604051633250574960e11b81525f60048201526024015b60405180910390fd5b5f610b4a838333611814565b9050836001600160a01b0316816001600160a01b031614610b98576040516364283d7b60e01b81526001600160a01b0380861660048301526024820184905282166044820152606401610b35565b50505050565b604080518082019091525f808252602082015260068281548110610bc457610bc4612e49565b905f5260205f2090600502016003016040518060400160405290815f82015481526020016001820154815250509050919050565b5f5f5f610c0484610b9e565b8051909150158015610c1857506020810151155b15610c2857505f93849350915050565b5f60068581548110610c3c57610c3c612e49565b5f91825260208220600360059092020190810182905560048101919091559050610c74610c6886610c9a565b83516020850151611906565b5050915091565b610c9583838360405180602001604052805f815250611147565b505050565b5f610860826117cf565b5f6001600160a01b038216610cce576040516322718ad960e21b81525f6004820152602401610b35565b506001600160a01b03165f9081526003602052604090205490565b5f610d137f000000000000000000000000000000000000000000000000000000000000000061197d565b905090565b5f6001610d23610a7d565b6003811115610d3457610d34612c06565b14610d5257604051630fe101db60e31b815260040160405180910390fd5b5f610d5b61115e565b90505f60068481548110610d7157610d71612e49565b5f918252602090912060059091020190506001610d8d8361106e565b6003811115610d9e57610d9e612c06565b148290610dc157604051632fb602db60e01b8152600401610b3591815260200190565b50806001018281548110610dd757610dd7612e49565b905f5260205f2090602091828204019190069054906101000a900460ff16158290610e18576040516302a9245160e41b8152600401610b3591815260200190565b50610e647f0000000000000000000000000000000000000000000000000000000000000000337f00000000000000000000000000000000000000000000000000000000000000006119b4565b6001816001018381548110610e7b57610e7b612e49565b905f5260205f2090602091828204019190066101000a81548160ff021916908315150217905550610eb481610eaf86610c9a565b611a1b565b949350505050565b5f5f60068381548110610ed157610ed1612e49565b905f5260205f2090600502015f01549050805f03610ef157505f92915050565b5f6007547f0000000000000000000000000000000000000000000000000000000000000000610f209190612ea3565b90505f610f55610f50837f0000000000000000000000000000000000000000000000000000000000000000612eb6565b61197d565b9050610f618184612ea3565b95945050505050565b6060600180546108bb90612e5d565b610f81612977565b5f610f8a610a7d565b6003811115610f9b57610f9b612c06565b14610fb95760405163d5a8809160e01b815260040160405180910390fd5b7f000000000000000000000000000000000000000000000000000000000000000060065410610ffb57604051634a9ce38960e11b815260040160405180910390fd5b5f6110257f000000000000000000000000000000000000000000000000000000000000000061197d565b90506110527f000000000000000000000000000000000000000000000000000000000000000033836119b4565b61105c8382611a52565b9392505050565b61096e338383611bdd565b5f807f000000000000000000000000000000000000000000000000000000000000000061109c600185612ea3565b6110a69190612eb6565b6110d0907f0000000000000000000000000000000000000000000000000000000000000000612ecd565b90505f6110fd7f000000000000000000000000000000000000000000000000000000000000000083612ecd565b90505f429050846007541061111757506003949350505050565b8281101561112957505f949350505050565b8181101561113c57506001949350505050565b506002949350505050565b611152848484610b10565b610b9884848484611c7b565b5f6001611169610a7d565b600381111561117a5761117a612c06565b1461118457505f90565b5f6111af7f000000000000000000000000000000000000000000000000000000000000000042612ea3565b90506111db7f000000000000000000000000000000000000000000000000000000000000000082612ef4565b6111e6906001612ecd565b91507f0000000000000000000000000000000000000000000000000000000000000000821115611234577f000000000000000000000000000000000000000000000000000000000000000091505b5090565b6060611243826117cf565b505f61125960408051602081019091525f815290565b90505f8151116112775760405180602001604052805f81525061105c565b8061128184611da1565b604051602001611292929190612f2a565b6040516020818303038152906040529392505050565b6001600160a01b039182165f90815260056020908152604080832093909416825291909152205460ff1690565b6112dd612977565b600682815481106112f0576112f0612e49565b905f5260205f2090600502016040518060800160405290815f82015481526020016001820180548060200260200160405190810160405280929190818152602001828054801561137c57602002820191905f5260205f20905f905b825461010083900a900460ff16151581526020600192830181810494850194909303909202910180841161134b5790505b505050918352505060028201546020808301919091526040805180820182526003850154815260049094015491840191909152015292915050565b5f6113c0610a7d565b905060018160038111156113d6576113d6612c06565b14806113f3575060028160038111156113f1576113f1612c06565b145b6114105760405163778d2c3760e11b815260040160405180910390fd5b5f61141961115e565b6007549091505f61142a8284612ea3565b905060016114378461106e565b600381111561144857611448612c06565b0361145b578061145781612f3e565b9150505b5f811161147b576040516339b309dd60e11b815260040160405180910390fd5b5f6114868284612ecd565b90506114a360405180604001604052805f81526020015f81525090565b5f80806114b1876001612ecd565b90505b84811161157b576040805180820182525f80825260209182018190528381526008825282902082518084019093528054835260010154908201819052909450915081156115045783519250611532565b61150c611e31565b92507f000000000000000000000000000000000000000000000000000000000000000091505b61153d838383611e92565b806006848154811061155157611551612e49565b5f91825260209091206002600590920201015560078190558061157381612f53565b9150506114b4565b505050505050505050565b6001611590610a7d565b60038111156115a1576115a1612c06565b146115bf57604051630fe101db60e31b815260040160405180910390fd5b5f6115c861115e565b905060016115d58261106e565b60038111156115e6576115e6612c06565b14819061160957604051632fb602db60e01b8152600401610b3591815260200190565b506006838154811061161d5761161d612e49565b905f5260205f209060050201600201545f1461164c57604051636bafb4c960e01b815260040160405180910390fd5b61165583610c9a565b6001600160a01b0316336001600160a01b03161461168657604051634eddae0760e01b815260040160405180910390fd5b5f818152600860205260408120600181015490918190036116cf576116cc7f00000000000000000000000000000000000000000000000000000000000000006001612ecd565b90505b8084106116ef57604051631b9903dd60e01b815260040160405180910390fd5b5092835550600190910155565b5f6003611707610a7d565b600381111561171857611718612c06565b1461173657604051636d83b9a360e11b815260040160405180910390fd5b5f6006838154811061174a5761174a612e49565b905f5260205f2090600502019050805f015491506108a7816108a185610c9a565b80835f015f82825461177d9190612ea3565b90915550610c9590507f00000000000000000000000000000000000000000000000000000000000000007f00000000000000000000000000000000000000000000000000000000000000008484611f9e565b5f818152600260205260408120546001600160a01b03168061086057604051637e27328960e01b815260048101849052602401610b35565b610c958383836001612029565b5f828152600260205260408120546001600160a01b03908116908316156118405761184081848661212d565b6001600160a01b0381161561187a5761185b5f855f5f612029565b6001600160a01b0381165f90815260036020526040902080545f190190555b6001600160a01b038516156118a8576001600160a01b0385165f908152600360205260409020805460010190555b5f8481526002602052604080822080546001600160a01b0319166001600160a01b0389811691821790925591518793918516917fddf252ad1be2c89b69c2b068fc378daa952ba7f163c4a11628f55a4df523b3ef91a4949350505050565b6119527f00000000000000000000000000000000000000000000000000000000000000007f00000000000000000000000000000000000000000000000000000000000000008584611f9e565b610c957f00000000000000000000000000000000000000000000000000000000000000008484612191565b5f5f6119a87f0000000000000000000000000000000000000000000000000000000000000000612250565b905061105c83826122b1565b6001600160a01b038316611a0057803414610c955760405162461bcd60e51b815260206004820152600c60248201526b0cae8d040dad2e6dac2e8c6d60a31b6044820152606401610b35565b8015610c9557610c956001600160a01b0384168330846122df565b5f611a457f000000000000000000000000000000000000000000000000000000000000000061197d565b905061086083838361176b565b611a5a612977565b60068054600181018083555f83815291929083908110611a7c57611a7c612e49565b5f91825260209091206005909102018481559050611abb7f00000000000000000000000000000000000000000000000000000000000000006001612ecd565b67ffffffffffffffff811115611ad357611ad3612d07565b604051908082528060200260200182016040528015611afc578160200160208202803683370190505b508051611b139160018401916020909101906129b5565b50611b1e8583612346565b806040518060800160405290815f820154815260200160018201805480602002602001604051908101604052809291908181526020018280548015611b9f57602002820191905f5260205f20905f905b825461010083900a900460ff161515815260206001928301818104948501949093039092029101808411611b6e5790505b505050918352505060028201546020808301919091526040805180820182526003850154815260049094015491840191909152015295945050505050565b6001600160a01b038216611c0f57604051630b61174360e31b81526001600160a01b0383166004820152602401610b35565b6001600160a01b038381165f81815260056020908152604080832094871680845294825291829020805460ff191686151590811790915591519182527f17307eab39ab6107e8899845ad3d59bd9653f200f220920489ca2b5937696c31910160405180910390a3505050565b6001600160a01b0383163b15610b9857604051630a85bd0160e11b81526001600160a01b0384169063150b7a0290611cbd903390889087908790600401612f6b565b6020604051808303815f875af1925050508015611cf7575060408051601f3d908101601f19168201909252611cf491810190612f9d565b60015b611d5e573d808015611d24576040519150601f19603f3d011682016040523d82523d5f602084013e611d29565b606091505b5080515f03611d5657604051633250574960e11b81526001600160a01b0385166004820152602401610b35565b805181602001fd5b6001600160e01b03198116630a85bd0160e11b14611d9a57604051633250574960e11b81526001600160a01b0385166004820152602401610b35565b5050505050565b60605f611dad836123a7565b60010190505f8167ffffffffffffffff811115611dcc57611dcc612d07565b6040519080825280601f01601f191660200182016040528015611df6576020820181803683370190505b5090508181016020015b5f19016f181899199a1a9b1b9c1cb0b131b232b360811b600a86061a8153600a8504945084611e0057509392505050565b5f5f5b7f00000000000000000000000000000000000000000000000000000000000000008110156112345760068181548110611e6f57611e6f612e49565b905f5260205f209060050201600201545f03611e8a57919050565b600101611e34565b7f00000000000000000000000000000000000000000000000000000000000000005f611ede827f000000000000000000000000000000000000000000000000000000000000000061247e565b90505f611f06611ef8611ef18486612ea3565b87906122b1565b670de0b6b3a764000061249b565b90505f611f1385836124b0565b90505f611f1f88610c9a565b9050611f3381835f01518460200151611906565b611f667f000000000000000000000000000000000000000000000000000000000000000083608001518460a00151611906565b5f7f0000000000000000000000000000000000000000000000000000000000000000905061157b89828560600151866040015161266b565b8015610b985760405163769f8e5d60e01b81526001600160a01b0383811660048301526024820183905284811660448301525f60648301819052608483015285169063769f8e5d9060a4016020604051808303815f875af1158015612005573d5f5f3e3d5ffd5b505050506040513d601f19601f82011682018060405250810190611d9a9190612fb8565b808061203d57506001600160a01b03821615155b156120fe575f61204c846117cf565b90506001600160a01b038316158015906120785750826001600160a01b0316816001600160a01b031614155b801561208b575061208981846112a8565b155b156120b45760405163a9fbf51f60e01b81526001600160a01b0384166004820152602401610b35565b81156120fc5783856001600160a01b0316826001600160a01b03167f8c5be1e5ebec7d5bd14f71427d1e84f3dd0314c0f7b2291e5b200ac8c7c3b92560405160405180910390a45b505b50505f90815260046020526040902080546001600160a01b0319166001600160a01b0392909216919091179055565b6121388383836126c6565b610c95576001600160a01b03831661216657604051637e27328960e01b815260048101829052602401610b35565b60405163177e802f60e01b81526001600160a01b038316600482015260248101829052604401610b35565b805f0361219d57505050565b6001600160a01b03831661223c575f826001600160a01b0316826040515f6040518083038185875af1925050503d805f81146121f4576040519150601f19603f3d011682016040523d82523d5f602084013e6121f9565b606091505b5050905080610b985760405162461bcd60e51b815260206004820152600f60248201526e195d1a081cd95b990819985a5b1959608a1b6044820152606401610b35565b610c956001600160a01b0384168383612727565b5f816001600160a01b0316633ba0b9a96040518163ffffffff1660e01b8152600401602060405180830381865afa15801561228d573d5f5f3e3d5ffd5b505050506040513d601f19601f820116820180604052508101906108609190612fb8565b5f806122c5670de0b6b3a764000085612eb6565b90508281816122d6576122d6612ee0565b04949350505050565b6040516001600160a01b038481166024830152838116604483015260648201839052610b989186918216906323b872dd906084015b604051602081830303815290604052915060e01b6020820180516001600160e01b038381831617835250505050612758565b6001600160a01b03821661236f57604051633250574960e11b81525f6004820152602401610b35565b5f61237b83835f611814565b90506001600160a01b03811615610c95576040516339e3563760e11b81525f6004820152602401610b35565b5f8072184f03e93ff9f4daa797ed6e38ed64bf6a1f0160401b83106123e55772184f03e93ff9f4daa797ed6e38ed64bf6a1f0160401b830492506040015b6d04ee2d6d415b85acef81000000008310612411576d04ee2d6d415b85acef8100000000830492506020015b662386f26fc10000831061242f57662386f26fc10000830492506010015b6305f5e1008310612447576305f5e100830492506008015b612710831061245b57612710830492506004015b6064831061246d576064830492506002015b600a83106108605760010192915050565b5f8061248a8385612eb6565b9050670de0b6b3a7640000816122d6565b5f8183106124a9578161105c565b5090919050565b6124e36040518060c001604052805f81526020015f81526020015f81526020015f81526020015f81526020015f81525090565b7f00000000000000000000000000000000000000000000000000000000000000005f61252e7f000000000000000000000000000000000000000000000000000000000000000061197d565b90505f61253b86836127b9565b90505f6125488285612ea3565b90505f6125558484612eb6565b90505f6125827f000000000000000000000000000000000000000000000000000000000000000084612eb6565b90506125ae827f000000000000000000000000000000000000000000000000000000000000000061247e565b60a08801526125dd817f000000000000000000000000000000000000000000000000000000000000000061247e565b60808801526125ec828961247e565b60208801526125fb818961247e565b8752670de0b6b3a764000088101561265f575f612619600188612ea3565b90505f61262e8a670de0b6b3a7640000612ea3565b90505f61263b8383612ef4565b9050612647858261247e565b60608b0152612656848261247e565b60408b01525050505b50505050505092915050565b81158015612677575080155b610b98575f5b83811015611d9a578085146126be575f600682815481106126a0576126a0612e49565b5f918252602090912060059091020160048101859055600301839055505b60010161267d565b5f6001600160a01b03831615801590610eb45750826001600160a01b0316846001600160a01b031614806126ff57506126ff84846112a8565b80610eb45750505f908152600460205260409020546001600160a01b03908116911614919050565b6040516001600160a01b03838116602483015260448201839052610c9591859182169063a9059cbb90606401612314565b5f61276c6001600160a01b03841683612872565b905080515f1415801561279057508080602001905181019061278e9190612fcf565b155b15610c9557604051635274afe760e01b81526001600160a01b0384166004820152602401610b35565b5f805b7f000000000000000000000000000000000000000000000000000000000000000081101561286b575f600682815481106127f8576127f8612e49565b905f5260205f209060050201905080600101858154811061281b5761281b612e49565b905f5260205f2090602091828204019190069054906101000a900460ff16612862578261284781612f53565b93505083815f015f82825461285c9190612ea3565b90915550505b506001016127bc565b5092915050565b606061105c83835f845f5f856001600160a01b031684866040516128969190612fea565b5f6040518083038185875af1925050503d805f81146128d0576040519150601f19603f3d011682016040523d82523d5f602084013e6128d5565b606091505b50915091506128e58683836128ef565b9695505050505050565b606082612904576128ff8261294b565b61105c565b815115801561291b57506001600160a01b0384163b155b1561294457604051639996b31560e01b81526001600160a01b0385166004820152602401610b35565b508061105c565b80511561295b5780518082602001fd5b604051630a12f52160e11b815260040160405180910390fd5b50565b60405180608001604052805f8152602001606081526020015f81526020016129b060405180604001604052805f81526020015f81525090565b905290565b828054828255905f5260205f2090601f01602090048101928215612a45579160200282015f5b83821115612a1757835183826101000a81548160ff02191690831515021790555092602001926001016020815f010492830192600103026129db565b8015612a435782816101000a81549060ff02191690556001016020815f01049283019260010302612a17565b505b506112349291505b80821115611234575f8155600101612a4d565b6001600160e01b031981168114612974575f5ffd5b5f60208284031215612a85575f5ffd5b813561105c81612a60565b5f60208284031215612aa0575f5ffd5b5035919050565b5f81518084528060208401602086015e5f602082860101526020601f19601f83011685010191505092915050565b602081525f61105c6020830184612aa7565b80356001600160a01b0381168114612afd575f5ffd5b919050565b5f5f60408385031215612b13575f5ffd5b612b1c83612ae7565b946020939093013593505050565b5f60a0830182518452602083015160a0602086015281815180845260c0870191506020830193505f92505b80831015612b7a57835115158252602082019150602084019350600183019250612b55565b506040850151604087015260608501519250610f61606087018480518252602090810151910152565b5f602082016020835280845180835260408501915060408160051b8601019250602086015f5b82811015612bfa57603f19878603018452612be5858351612b2a565b94506020938401939190910190600101612bc9565b50929695505050505050565b634e487b7160e01b5f52602160045260245ffd5b6004811061297457634e487b7160e01b5f52602160045260245ffd5b60208101612c4383612c1a565b91905290565b5f5f5f60608486031215612c5b575f5ffd5b612c6484612ae7565b9250612c7260208501612ae7565b929592945050506040919091013590565b815181526020808301519082015260408101610860565b5f60208284031215612caa575f5ffd5b61105c82612ae7565b602081525f61105c6020830184612b2a565b8015158114612974575f5ffd5b5f5f60408385031215612ce3575f5ffd5b612cec83612ae7565b91506020830135612cfc81612cc5565b809150509250929050565b634e487b7160e01b5f52604160045260245ffd5b5f5f5f5f60808587031215612d2e575f5ffd5b612d3785612ae7565b9350612d4560208601612ae7565b925060408501359150606085013567ffffffffffffffff811115612d67575f5ffd5b8501601f81018713612d77575f5ffd5b803567ffffffffffffffff811115612d9157612d91612d07565b604051601f8201601f19908116603f0116810167ffffffffffffffff81118282101715612dc057612dc0612d07565b604052818152828201602001891015612dd7575f5ffd5b816020840160208301375f6020838301015280935050505092959194509250565b5f5f60408385031215612e09575f5ffd5b612e1283612ae7565b9150612e2060208401612ae7565b90509250929050565b5f5f60408385031215612e3a575f5ffd5b50508035926020909101359150565b634e487b7160e01b5f52603260045260245ffd5b600181811c90821680612e7157607f821691505b6020821081036108a757634e487b7160e01b5f52602260045260245ffd5b634e487b7160e01b5f52601160045260245ffd5b8181038181111561086057610860612e8f565b808202811582820484141761086057610860612e8f565b8082018082111561086057610860612e8f565b634e487b7160e01b5f52601260045260245ffd5b5f82612f0e57634e487b7160e01b5f52601260045260245ffd5b500490565b5f81518060208401855e5f93019283525090919050565b5f610eb4612f388386612f13565b84612f13565b5f81612f4c57612f4c612e8f565b505f190190565b5f60018201612f6457612f64612e8f565b5060010190565b6001600160a01b03858116825284166020820152604081018390526080606082018190525f906128e590830184612aa7565b5f60208284031215612fad575f5ffd5b815161105c81612a60565b5f60208284031215612fc8575f5ffd5b5051919050565b5f60208284031215612fdf575f5ffd5b815161105c81612cc5565b5f61105c8284612f1356fea2646970667358221220a0b67bc621d49b28c8b0c10ed17e3c64a5cc60436ec821e5f1b10454f4f548f164736f6c634300081b0033a26469706673582212202310b80b272876ccd75e41f059bdea8fe74d78ff7dc812f9d30dc745077eb95c64736f6c634300081b0033","linkReferences":{}},"methodIdentifiers":{"MAX_RESERVE_FEE_PERCENT()":"64752910","MIN_TOTAL_CYCLES()":"f704d19b","addSupportedSYTokens(address[])":"fe4d911d","createSpiralPool(address,uint256,uint256,uint256,uint256,uint256)":"9db09764","getReserveFeePercent()":"a60df5e8","getSpiralPoolsForSYToken(address)":"abae098e","getSupportedSYTokens()":"4da16d2f","getTreasury()":"3b19e84a","getUnderlyingTokens(address)":"656dc2e4","isSupportedSYToken(address)":"561dba4f","owner()":"8da5cb5b","renounceOwnership()":"715018a6","transferOwnership(address)":"f2fde38b","updateReserveFeePercent(uint256)":"8c7193b7","updateTreasury(address)":"7f51bb1f"},"id":63}