{"abi":[{"type":"function","name":"depositYbtCollateral","inputs":[{"name":"receiver","type":"address","internalType":"address"},{"name":"spiralPool","type":"address","internalType":"address"},{"name":"SY","type":"address","internalType":"address"},{"name":"ybtIn","type":"address","internalType":"address"},{"name":"amountYbtIn","type":"uint256","internalType":"uint256"}],"outputs":[{"name":"","type":"tuple","internalType":"struct Position","components":[{"name":"amountCollateral","type":"uint256","internalType":"uint256"},{"name":"cyclesDeposited","type":"bool[]","internalType":"bool[]"},{"name":"winningCycle","type":"uint256","internalType":"uint256"},{"name":"spiralYield","type":"tuple","internalType":"struct SpiralYield","components":[{"name":"amountBase","type":"uint256","internalType":"uint256"},{"name":"amountSY","type":"uint256","internalType":"uint256"}]}]}],"stateMutability":"nonpayable"},{"type":"error","name":"AddressEmptyCode","inputs":[{"name":"target","type":"address","internalType":"address"}]},{"type":"error","name":"AddressInsufficientBalance","inputs":[{"name":"account","type":"address","internalType":"address"}]},{"type":"error","name":"FailedInnerCall","inputs":[]},{"type":"error","name":"SafeERC20FailedOperation","inputs":[{"name":"token","type":"address","internalType":"address"}]}],"bytecode":{"object":"0x6080604052348015600e575f5ffd5b506107d38061001c5f395ff3fe608060405234801561000f575f5ffd5b5060043610610029575f3560e01c80633a810b2d1461002d575b5f5ffd5b61004061003b3660046104a9565b610056565b60405161004d9190610501565b60405180910390f35b61005e610450565b306100746001600160a01b038516338386610253565b60405163095ea7b360e01b81526001600160a01b0386811660048301526024820185905285169063095ea7b3906044016020604051808303815f875af11580156100c0573d5f5f3e3d5ffd5b505050506040513d601f19601f820116820180604052508101906100e49190610595565b506040516320e8c56560e01b81526001600160a01b0382811660048301528581166024830152604482018590525f6064830181905291908716906320e8c565906084016020604051808303815f875af1158015610143573d5f5f3e3d5ffd5b505050506040513d601f19601f8201168201806040525081019061016791906105ae565b60405163095ea7b360e01b81526001600160a01b038981166004830152602482018390529192509087169063095ea7b3906044016020604051808303815f875af11580156101b7573d5f5f3e3d5ffd5b505050506040513d601f19601f820116820180604052508101906101db9190610595565b506040516397d475d760e01b81526001600160a01b0389811660048301528816906397d475d7906024015f604051808303815f875af1158015610220573d5f5f3e3d5ffd5b505050506040513d5f823e601f3d908101601f191682016040526102479190810190610680565b98975050505050505050565b604080516001600160a01b0385811660248301528416604482015260648082018490528251808303909101815260849091019091526020810180516001600160e01b03166323b872dd60e01b1790526102ad9085906102b3565b50505050565b5f6102c76001600160a01b0384168361031e565b905080515f141580156102eb5750808060200190518101906102e99190610595565b155b1561031957604051635274afe760e01b81526001600160a01b03841660048201526024015b60405180910390fd5b505050565b606061032b83835f610332565b9392505050565b6060814710156103575760405163cd78605960e01b8152306004820152602401610310565b5f5f856001600160a01b031684866040516103729190610787565b5f6040518083038185875af1925050503d805f81146103ac576040519150601f19603f3d011682016040523d82523d5f602084013e6103b1565b606091505b50915091506103c18683836103cb565b9695505050505050565b6060826103e0576103db82610427565b61032b565b81511580156103f757506001600160a01b0384163b155b1561042057604051639996b31560e01b81526001600160a01b0385166004820152602401610310565b508061032b565b8051156104375780518082602001fd5b604051630a12f52160e11b815260040160405180910390fd5b60405180608001604052805f8152602001606081526020015f815260200161048960405180604001604052805f81526020015f81525090565b905290565b80356001600160a01b03811681146104a4575f5ffd5b919050565b5f5f5f5f5f60a086880312156104bd575f5ffd5b6104c68661048e565b94506104d46020870161048e565b93506104e26040870161048e565b92506104f06060870161048e565b949793965091946080013592915050565b60208082528251828201528281015160a06040840152805160c084018190525f929190910190829060e08501905b808310156105545783511515825260208201915060208401935060018301925061052f565b50604086015160608601526060860151925061057d608086018480518252602090810151910152565b95945050505050565b805180151581146104a4575f5ffd5b5f602082840312156105a5575f5ffd5b61032b82610586565b5f602082840312156105be575f5ffd5b5051919050565b634e487b7160e01b5f52604160045260245ffd5b6040516080810167ffffffffffffffff811182821017156105fc576105fc6105c5565b60405290565b604051601f8201601f1916810167ffffffffffffffff8111828210171561062b5761062b6105c5565b604052919050565b5f60408284031215610643575f5ffd5b6040805190810167ffffffffffffffff81118282101715610666576106666105c5565b604052825181526020928301519281019290925250919050565b5f60208284031215610690575f5ffd5b815167ffffffffffffffff8111156106a6575f5ffd5b820160a081850312156106b7575f5ffd5b6106bf6105d9565b81518152602082015167ffffffffffffffff8111156106dc575f5ffd5b8201601f810186136106ec575f5ffd5b805167ffffffffffffffff811115610706576107066105c5565b8060051b61071660208201610602565b91825260208184018101929081019089841115610731575f5ffd5b6020850194505b8385101561075a5761074985610586565b825260209485019490910190610738565b6020860152505050506040828101519082015261077a8560608401610633565b6060820152949350505050565b5f82518060208501845e5f92019182525091905056fea26469706673582212200d7ffbc806002954c127e9ecb0489b9e90296d8ab4f8fc39cfaac8e74ab9421a64736f6c634300081b0033","linkReferences":{}},"methodIdentifiers":{"depositYbtCollateral(address,address,address,address,uint256)":"3a810b2d"},"id":85}